{
  "address": "0xF5DBC7FE4c0C6eB160dC32C6EcbDFaf36A7E90A0",
  "abi": [
    {
      "inputs": [],
      "stateMutability": "nonpayable",
      "type": "constructor"
    },
    {
      "inputs": [],
      "name": "DRC_CoolOffPeriodNotOver",
      "type": "error"
    },
    {
      "inputs": [],
      "name": "DRC_UnknownContractAddress",
      "type": "error"
    },
    {
      "anonymous": false,
      "inputs": [
        {
          "indexed": true,
          "internalType": "bytes32",
          "name": "id",
          "type": "bytes32"
        }
      ],
      "name": "ChainlinkCancelled",
      "type": "event"
    },
    {
      "anonymous": false,
      "inputs": [
        {
          "indexed": true,
          "internalType": "bytes32",
          "name": "id",
          "type": "bytes32"
        }
      ],
      "name": "ChainlinkFulfilled",
      "type": "event"
    },
    {
      "anonymous": false,
      "inputs": [
        {
          "indexed": true,
          "internalType": "bytes32",
          "name": "id",
          "type": "bytes32"
        }
      ],
      "name": "ChainlinkRequested",
      "type": "event"
    },
    {
      "inputs": [
        {
          "internalType": "bytes32",
          "name": "_requestId",
          "type": "bytes32"
        },
        {
          "internalType": "string",
          "name": "_address",
          "type": "string"
        }
      ],
      "name": "fulfill1",
      "outputs": [],
      "stateMutability": "nonpayable",
      "type": "function"
    },
    {
      "inputs": [
        {
          "internalType": "bytes32",
          "name": "_requestId",
          "type": "bytes32"
        },
        {
          "internalType": "string",
          "name": "_address",
          "type": "string"
        }
      ],
      "name": "fulfill2",
      "outputs": [],
      "stateMutability": "nonpayable",
      "type": "function"
    },
    {
      "inputs": [
        {
          "internalType": "bytes32",
          "name": "_requestId",
          "type": "bytes32"
        },
        {
          "internalType": "string",
          "name": "_address",
          "type": "string"
        }
      ],
      "name": "fulfill3",
      "outputs": [],
      "stateMutability": "nonpayable",
      "type": "function"
    },
    {
      "inputs": [
        {
          "internalType": "string",
          "name": "",
          "type": "string"
        }
      ],
      "name": "recordTransitionMap",
      "outputs": [
        {
          "internalType": "address",
          "name": "dappRegistry",
          "type": "address"
        },
        {
          "internalType": "uint256",
          "name": "timestamp",
          "type": "uint256"
        }
      ],
      "stateMutability": "view",
      "type": "function"
    },
    {
      "inputs": [
        {
          "internalType": "string",
          "name": "",
          "type": "string"
        }
      ],
      "name": "registryMap",
      "outputs": [
        {
          "internalType": "address",
          "name": "dappRegistry",
          "type": "address"
        },
        {
          "internalType": "address",
          "name": "admin",
          "type": "address"
        }
      ],
      "stateMutability": "view",
      "type": "function"
    },
    {
      "inputs": [
        {
          "internalType": "string",
          "name": "_domain",
          "type": "string"
        },
        {
          "internalType": "address",
          "name": "_dappRegistry",
          "type": "address"
        }
      ],
      "name": "setDappRegistry",
      "outputs": [],
      "stateMutability": "nonpayable",
      "type": "function"
    }
  ],
  "transactionHash": "0x7d21d098682437cccf2cbb1571559c58e1e7c0a867c0db99124c65ad45203566",
  "args": [],
  "numDeployments": 1,
  "solcInputHash": "c4c4aa5bb5e1ca887f9bbbabafc6e855",
  "bytecode": "0x608060405260016004553480156200001657600080fd5b506200003c73779877a7b0d9e8603169ddbd7836e478b4624789620000b960201b60201c565b62000061736090149792daaee9d1d568c9f9a6f6b46aa29efd620000fd60201b60201c565b7f3764383061363338366566353433613361626235323831376636373037653362600681905550600a670de0b6b3a76400006001620000a191906200017a565b620000ad9190620001f4565b6007819055506200022c565b80600260006101000a81548173ffffffffffffffffffffffffffffffffffffffff021916908373ffffffffffffffffffffffffffffffffffffffff16021790555050565b80600360006101000a81548173ffffffffffffffffffffffffffffffffffffffff021916908373ffffffffffffffffffffffffffffffffffffffff16021790555050565b6000819050919050565b7f4e487b7100000000000000000000000000000000000000000000000000000000600052601160045260246000fd5b6000620001878262000141565b9150620001948362000141565b9250828202620001a48162000141565b91508282048414831517620001be57620001bd6200014b565b5b5092915050565b7f4e487b7100000000000000000000000000000000000000000000000000000000600052601260045260246000fd5b6000620002018262000141565b91506200020e8362000141565b925082620002215762000220620001c5565b5b828204905092915050565b612c36806200023c6000396000f3fe608060405234801561001057600080fd5b50600436106100625760003560e01c80632a73e9d9146100675780632cd6a2f9146100985780635c666026146100b4578063aba98acf146100d0578063bce8542e146100ec578063cdf831761461011d575b600080fd5b610081600480360381019061007c9190611d40565b610139565b60405161008f929190611de3565b60405180910390f35b6100b260048036038101906100ad9190611e42565b610193565b005b6100ce60048036038101906100c99190611eca565b6106a7565b005b6100ea60048036038101906100e59190611e42565b6108af565b005b61010660048036038101906101019190611d40565b610c0d565b604051610114929190611f26565b60405180910390f35b61013760048036038101906101329190611e42565b610c87565b005b600b818051602081018201805184825260208301602085012081835280955050505050506000915090508060000160009054906101000a900473ffffffffffffffffffffffffffffffffffffffff16908060010154905082565b816005600082815260200190815260200160002060009054906101000a900473ffffffffffffffffffffffffffffffffffffffff1673ffffffffffffffffffffffffffffffffffffffff163373ffffffffffffffffffffffffffffffffffffffff1614610235576040517f08c379a000000000000000000000000000000000000000000000000000000000815260040161022c90611fd2565b60405180910390fd5b6005600082815260200190815260200160002060006101000a81549073ffffffffffffffffffffffffffffffffffffffff0219169055807f7cc135e0cebb02c3480ae5d74d377283180a2601f8f644edf7987b009316c63a60405160405180910390a260006102a383610ef4565b9050600960009054906101000a900473ffffffffffffffffffffffffffffffffffffffff1673ffffffffffffffffffffffffffffffffffffffff1663a2d8262a826040518263ffffffff1660e01b81526004016103009190611ff2565b602060405180830381865afa15801561031d573d6000803e3d6000fd5b505050506040513d601f19601f820116820180604052508101906103419190612045565b610377576040517f1dbcf63600000000000000000000000000000000000000000000000000000000815260040160405180910390fd5b600960009054906101000a900473ffffffffffffffffffffffffffffffffffffffff1673ffffffffffffffffffffffffffffffffffffffff16600b60086040516103c19190612175565b908152602001604051809103902060000160009054906101000a900473ffffffffffffffffffffffffffffffffffffffff1673ffffffffffffffffffffffffffffffffffffffff16036105f65762093a80600b60086040516104239190612175565b90815260200160405180910390206001015461043f91906121bb565b4211156105bf57600960009054906101000a900473ffffffffffffffffffffffffffffffffffffffff16600a600860405161047a9190612175565b908152602001604051809103902060000160006101000a81548173ffffffffffffffffffffffffffffffffffffffff021916908373ffffffffffffffffffffffffffffffffffffffff160217905550600960009054906101000a900473ffffffffffffffffffffffffffffffffffffffff1673ffffffffffffffffffffffffffffffffffffffff16638da5cb5b6040518163ffffffff1660e01b8152600401602060405180830381865afa158015610536573d6000803e3d6000fd5b505050506040513d601f19601f8201168201806040525081019061055a9190612204565b600a600860405161056b9190612175565b908152602001604051809103902060010160006101000a81548173ffffffffffffffffffffffffffffffffffffffff021916908373ffffffffffffffffffffffffffffffffffffffff1602179055506105f1565b6040517f56a1446c00000000000000000000000000000000000000000000000000000000815260040160405180910390fd5b6106a1565b600960009054906101000a900473ffffffffffffffffffffffffffffffffffffffff16600b600860405161062a9190612175565b908152602001604051809103902060000160006101000a81548173ffffffffffffffffffffffffffffffffffffffff021916908373ffffffffffffffffffffffffffffffffffffffff16021790555042600b600860405161068b9190612175565b9081526020016040518091039020600101819055505b50505050565b80600960006101000a81548173ffffffffffffffffffffffffffffffffffffffff021916908373ffffffffffffffffffffffffffffffffffffffff16021790555081600890816106f791906123d3565b50600073ffffffffffffffffffffffffffffffffffffffff16600a836040516107209190612500565b908152602001604051809103902060000160009054906101000a900473ffffffffffffffffffffffffffffffffffffffff1673ffffffffffffffffffffffffffffffffffffffff161461089857600960009054906101000a900473ffffffffffffffffffffffffffffffffffffffff1673ffffffffffffffffffffffffffffffffffffffff16638da5cb5b6040518163ffffffff1660e01b8152600401602060405180830381865afa1580156107da573d6000803e3d6000fd5b505050506040513d601f19601f820116820180604052508101906107fe9190612204565b73ffffffffffffffffffffffffffffffffffffffff16600a836040516108249190612500565b908152602001604051809103902060010160009054906101000a900473ffffffffffffffffffffffffffffffffffffffff1673ffffffffffffffffffffffffffffffffffffffff1603610888576108828263cdf8317660e01b6111c2565b50610893565b61089282826112d1565b5b6108ab565b6108a98263aba98acf60e01b6111c2565b505b5050565b816005600082815260200190815260200160002060009054906101000a900473ffffffffffffffffffffffffffffffffffffffff1673ffffffffffffffffffffffffffffffffffffffff163373ffffffffffffffffffffffffffffffffffffffff1614610951576040517f08c379a000000000000000000000000000000000000000000000000000000000815260040161094890611fd2565b60405180910390fd5b6005600082815260200190815260200160002060006101000a81549073ffffffffffffffffffffffffffffffffffffffff0219169055807f7cc135e0cebb02c3480ae5d74d377283180a2601f8f644edf7987b009316c63a60405160405180910390a260006109bf83610ef4565b9050600960009054906101000a900473ffffffffffffffffffffffffffffffffffffffff1673ffffffffffffffffffffffffffffffffffffffff1663a2d8262a826040518263ffffffff1660e01b8152600401610a1c9190611ff2565b602060405180830381865afa158015610a39573d6000803e3d6000fd5b505050506040513d601f19601f82011682018060405250810190610a5d9190612045565b610a93576040517f1dbcf63600000000000000000000000000000000000000000000000000000000815260040160405180910390fd5b600960009054906101000a900473ffffffffffffffffffffffffffffffffffffffff16600a6008604051610ac79190612175565b908152602001604051809103902060000160006101000a81548173ffffffffffffffffffffffffffffffffffffffff021916908373ffffffffffffffffffffffffffffffffffffffff160217905550600960009054906101000a900473ffffffffffffffffffffffffffffffffffffffff1673ffffffffffffffffffffffffffffffffffffffff16638da5cb5b6040518163ffffffff1660e01b8152600401602060405180830381865afa158015610b83573d6000803e3d6000fd5b505050506040513d601f19601f82011682018060405250810190610ba79190612204565b600a6008604051610bb89190612175565b908152602001604051809103902060010160006101000a81548173ffffffffffffffffffffffffffffffffffffffff021916908373ffffffffffffffffffffffffffffffffffffffff16021790555050505050565b600a818051602081018201805184825260208301602085012081835280955050505050506000915090508060000160009054906101000a900473ffffffffffffffffffffffffffffffffffffffff16908060010160009054906101000a900473ffffffffffffffffffffffffffffffffffffffff16905082565b816005600082815260200190815260200160002060009054906101000a900473ffffffffffffffffffffffffffffffffffffffff1673ffffffffffffffffffffffffffffffffffffffff163373ffffffffffffffffffffffffffffffffffffffff1614610d29576040517f08c379a0000000000000000000000000000000000000000000000000000000008152600401610d2090611fd2565b60405180910390fd5b6005600082815260200190815260200160002060006101000a81549073ffffffffffffffffffffffffffffffffffffffff0219169055807f7cc135e0cebb02c3480ae5d74d377283180a2601f8f644edf7987b009316c63a60405160405180910390a26000610d9783610ef4565b9050600960009054906101000a900473ffffffffffffffffffffffffffffffffffffffff1673ffffffffffffffffffffffffffffffffffffffff1663a2d8262a826040518263ffffffff1660e01b8152600401610df49190611ff2565b602060405180830381865afa158015610e11573d6000803e3d6000fd5b505050506040513d601f19601f82011682018060405250810190610e359190612045565b610e6b576040517f1dbcf63600000000000000000000000000000000000000000000000000000000815260040160405180910390fd5b600960009054906101000a900473ffffffffffffffffffffffffffffffffffffffff16600a6008604051610e9f9190612175565b908152602001604051809103902060000160006101000a81548173ffffffffffffffffffffffffffffffffffffffff021916908373ffffffffffffffffffffffffffffffffffffffff16021790555050505050565b600080829050600080806000600290505b602a8110156111b55761010084610f1c9190612517565b9350848181518110610f3157610f30612559565b5b602001015160f81c60f81b60f81c60ff16925084600182610f5291906121bb565b81518110610f6357610f62612559565b5b602001015160f81c60f81b60f81c60ff16915060618373ffffffffffffffffffffffffffffffffffffffff1610158015610fb4575060668373ffffffffffffffffffffffffffffffffffffffff1611155b15610fcd57605783610fc69190612588565b9250611079565b60418373ffffffffffffffffffffffffffffffffffffffff161015801561100b575060468373ffffffffffffffffffffffffffffffffffffffff1611155b156110245760378361101d9190612588565b9250611078565b60308373ffffffffffffffffffffffffffffffffffffffff1610158015611062575060398373ffffffffffffffffffffffffffffffffffffffff1611155b15611077576030836110749190612588565b92505b5b5b60618273ffffffffffffffffffffffffffffffffffffffff16101580156110b7575060668273ffffffffffffffffffffffffffffffffffffffff1611155b156110d0576057826110c99190612588565b915061117c565b60418273ffffffffffffffffffffffffffffffffffffffff161015801561110e575060468273ffffffffffffffffffffffffffffffffffffffff1611155b15611127576037826111209190612588565b915061117b565b60308273ffffffffffffffffffffffffffffffffffffffff1610158015611165575060398273ffffffffffffffffffffffffffffffffffffffff1611155b1561117a576030826111779190612588565b91505b5b5b8160108461118a9190612517565b61119491906125d0565b8461119f91906125d0565b93506002816111ae91906121bb565b9050610f05565b5082945050505050919050565b6000806111d26006543085611328565b905061123d6040518060400160405280600381526020017f67657400000000000000000000000000000000000000000000000000000000008152508560405160200161121e91906126b0565b604051602081830303815290604052836113599092919063ffffffff16565b6112bc6040518060400160405280600481526020017f70617468000000000000000000000000000000000000000000000000000000008152506040518060400160405280601181526020017f302c636f6e747261637441646472657373000000000000000000000000000000815250836113599092919063ffffffff16565b6112c88160075461138c565b91505092915050565b80600960006101000a81548173ffffffffffffffffffffffffffffffffffffffff021916908373ffffffffffffffffffffffffffffffffffffffff16021790555061132382632cd6a2f960e01b6111c2565b505050565b611330611b5f565b611338611b5f565b61134f858585846113c3909392919063ffffffff16565b9150509392505050565b61137082846080015161147390919063ffffffff16565b61138781846080015161147390919063ffffffff16565b505050565b60006113bb600360009054906101000a900473ffffffffffffffffffffffffffffffffffffffff168484611498565b905092915050565b6113cb611b5f565b6113db8560800151610100611564565b508385600001818152505082856020019073ffffffffffffffffffffffffffffffffffffffff16908173ffffffffffffffffffffffffffffffffffffffff16815250508185604001907bffffffffffffffffffffffffffffffffffffffffffffffffffffffff191690817bffffffffffffffffffffffffffffffffffffffffffffffffffffffff191681525050849050949350505050565b61148082600383516115ce565b611493818361175390919063ffffffff16565b505050565b60008060045490506001816114ad91906121bb565b6004819055506000634042994660e01b60008087600001513089604001518760018c60800151600001516040516024016114ee98979695949392919061277c565b604051602081830303815290604052907bffffffffffffffffffffffffffffffffffffffffffffffffffffffff19166020820180517bffffffffffffffffffffffffffffffffffffffffffffffffffffffff8381831617835250505050905061155986838684611775565b925050509392505050565b61156c611bcc565b600060208361157b9190612830565b146115a75760208261158d9190612830565b60206115999190612861565b826115a491906121bb565b91505b81836020018181525050604051808452600081528281016020016040525082905092915050565b60178167ffffffffffffffff1611611605576115ff8160058460ff16901b60ff16178461190a90919063ffffffff16565b5061174e565b60ff8167ffffffffffffffff161161165b57611634601860058460ff16901b178461190a90919063ffffffff16565b506116558167ffffffffffffffff1660018561192a9092919063ffffffff16565b5061174d565b61ffff8167ffffffffffffffff16116116b25761168b601960058460ff16901b178461190a90919063ffffffff16565b506116ac8167ffffffffffffffff1660028561192a9092919063ffffffff16565b5061174c565b63ffffffff8167ffffffffffffffff161161170b576116e4601a60058460ff16901b178461190a90919063ffffffff16565b506117058167ffffffffffffffff1660048561192a9092919063ffffffff16565b5061174b565b611728601b60058460ff16901b178461190a90919063ffffffff16565b506117498167ffffffffffffffff1660088561192a9092919063ffffffff16565b505b5b5b5b505050565b61175b611bcc565b61176d8384600001515184855161194c565b905092915050565b6000308460405160200161178a929190612944565b604051602081830303815290604052805190602001209050846005600083815260200190815260200160002060006101000a81548173ffffffffffffffffffffffffffffffffffffffff021916908373ffffffffffffffffffffffffffffffffffffffff160217905550807fb5e6e01e79f91267dc17b4e6314d5d4d03593d2ceee0fbb452b750bd70ea5af960405160405180910390a2600260009054906101000a900473ffffffffffffffffffffffffffffffffffffffff1673ffffffffffffffffffffffffffffffffffffffff16634000aea08685856040518463ffffffff1660e01b815260040161188093929190612970565b6020604051808303816000875af115801561189f573d6000803e3d6000fd5b505050506040513d601f19601f820116820180604052508101906118c39190612045565b611902576040517f08c379a00000000000000000000000000000000000000000000000000000000081526004016118f990612a20565b60405180910390fd5b949350505050565b611912611bcc565b6119228384600001515184611a3b565b905092915050565b611932611bcc565b611943848560000151518585611a91565b90509392505050565b611954611bcc565b825182111561196257600080fd5b8460200151828561197391906121bb565b11156119a8576119a78560026119988860200151888761199391906121bb565b611b1f565b6119a29190612a40565b611b3b565b5b6000808651805187602083010193508088870111156119c75787860182525b60208701925050505b60208410611a0e57805182526020826119e991906121bb565b91506020816119f891906121bb565b9050602084611a079190612861565b93506119d0565b60006001856020036101000a03905080198251168184511681811785525050508692505050949350505050565b611a43611bcc565b83602001518310611a6957611a688460028660200151611a639190612a40565b611b3b565b5b83518051602085830101848153818603611a84576001820183525b5050508390509392505050565b611a99611bcc565b84602001518483611aaa91906121bb565b1115611ad257611ad18560028685611ac291906121bb565b611acc9190612a40565b611b3b565b5b6000600183610100611ae49190612bb5565b611aee9190612861565b90508551838682010185831982511617815281518588011115611b115784870182525b505085915050949350505050565b600081831115611b3157829050611b35565b8190505b92915050565b600082600001519050611b4e8383611564565b50611b598382611753565b50505050565b6040518060a0016040528060008019168152602001600073ffffffffffffffffffffffffffffffffffffffff16815260200160007bffffffffffffffffffffffffffffffffffffffffffffffffffffffff1916815260200160008152602001611bc6611bcc565b81525090565b604051806040016040528060608152602001600081525090565b6000604051905090565b600080fd5b600080fd5b600080fd5b600080fd5b6000601f19601f8301169050919050565b7f4e487b7100000000000000000000000000000000000000000000000000000000600052604160045260246000fd5b611c4d82611c04565b810181811067ffffffffffffffff82111715611c6c57611c6b611c15565b5b80604052505050565b6000611c7f611be6565b9050611c8b8282611c44565b919050565b600067ffffffffffffffff821115611cab57611caa611c15565b5b611cb482611c04565b9050602081019050919050565b82818337600083830152505050565b6000611ce3611cde84611c90565b611c75565b905082815260208101848484011115611cff57611cfe611bff565b5b611d0a848285611cc1565b509392505050565b600082601f830112611d2757611d26611bfa565b5b8135611d37848260208601611cd0565b91505092915050565b600060208284031215611d5657611d55611bf0565b5b600082013567ffffffffffffffff811115611d7457611d73611bf5565b5b611d8084828501611d12565b91505092915050565b600073ffffffffffffffffffffffffffffffffffffffff82169050919050565b6000611db482611d89565b9050919050565b611dc481611da9565b82525050565b6000819050919050565b611ddd81611dca565b82525050565b6000604082019050611df86000830185611dbb565b611e056020830184611dd4565b9392505050565b6000819050919050565b611e1f81611e0c565b8114611e2a57600080fd5b50565b600081359050611e3c81611e16565b92915050565b60008060408385031215611e5957611e58611bf0565b5b6000611e6785828601611e2d565b925050602083013567ffffffffffffffff811115611e8857611e87611bf5565b5b611e9485828601611d12565b9150509250929050565b611ea781611da9565b8114611eb257600080fd5b50565b600081359050611ec481611e9e565b92915050565b60008060408385031215611ee157611ee0611bf0565b5b600083013567ffffffffffffffff811115611eff57611efe611bf5565b5b611f0b85828601611d12565b9250506020611f1c85828601611eb5565b9150509250929050565b6000604082019050611f3b6000830185611dbb565b611f486020830184611dbb565b9392505050565b600082825260208201905092915050565b7f536f75726365206d75737420626520746865206f7261636c65206f662074686560008201527f2072657175657374000000000000000000000000000000000000000000000000602082015250565b6000611fbc602883611f4f565b9150611fc782611f60565b604082019050919050565b60006020820190508181036000830152611feb81611faf565b9050919050565b60006020820190506120076000830184611dbb565b92915050565b60008115159050919050565b6120228161200d565b811461202d57600080fd5b50565b60008151905061203f81612019565b92915050565b60006020828403121561205b5761205a611bf0565b5b600061206984828501612030565b91505092915050565b7f4e487b7100000000000000000000000000000000000000000000000000000000600052602260045260246000fd5b600060028204905060018216806120b957607f821691505b6020821081036120cc576120cb612072565b5b50919050565b600081905092915050565b60008190508160005260206000209050919050565b600081546120ff816120a1565b61210981866120d2565b9450600182166000811461212457600181146121395761216c565b60ff198316865281151582028601935061216c565b612142856120dd565b60005b8381101561216457815481890152600182019150602081019050612145565b838801955050505b50505092915050565b600061218182846120f2565b915081905092915050565b7f4e487b7100000000000000000000000000000000000000000000000000000000600052601160045260246000fd5b60006121c682611dca565b91506121d183611dca565b92508282019050808211156121e9576121e861218c565b5b92915050565b6000815190506121fe81611e9e565b92915050565b60006020828403121561221a57612219611bf0565b5b6000612228848285016121ef565b91505092915050565b600081519050919050565b60006020601f8301049050919050565b600082821b905092915050565b6000600883026122897fffffffffffffffffffffffffffffffffffffffffffffffffffffffffffffffff8261224c565b612293868361224c565b95508019841693508086168417925050509392505050565b6000819050919050565b60006122d06122cb6122c684611dca565b6122ab565b611dca565b9050919050565b6000819050919050565b6122ea836122b5565b6122fe6122f6826122d7565b848454612259565b825550505050565b600090565b612313612306565b61231e8184846122e1565b505050565b5b818110156123425761233760008261230b565b600181019050612324565b5050565b601f82111561238757612358816120dd565b6123618461223c565b81016020851015612370578190505b61238461237c8561223c565b830182612323565b50505b505050565b600082821c905092915050565b60006123aa6000198460080261238c565b1980831691505092915050565b60006123c38383612399565b9150826002028217905092915050565b6123dc82612231565b67ffffffffffffffff8111156123f5576123f4611c15565b5b6123ff82546120a1565b61240a828285612346565b600060209050601f83116001811461243d576000841561242b578287015190505b61243585826123b7565b86555061249d565b601f19841661244b866120dd565b60005b828110156124735784890151825560018201915060208501945060208101905061244e565b86831015612490578489015161248c601f891682612399565b8355505b6001600288020188555050505b505050505050565b60005b838110156124c35780820151818401526020810190506124a8565b60008484015250505050565b60006124da82612231565b6124e481856120d2565b93506124f48185602086016124a5565b80840191505092915050565b600061250c82846124cf565b915081905092915050565b600061252282611d89565b915061252d83611d89565b925082820261253b81611d89565b915082820484148315176125525761255161218c565b5b5092915050565b7f4e487b7100000000000000000000000000000000000000000000000000000000600052603260045260246000fd5b600061259382611d89565b915061259e83611d89565b9250828203905073ffffffffffffffffffffffffffffffffffffffff8111156125ca576125c961218c565b5b92915050565b60006125db82611d89565b91506125e683611d89565b9250828201905073ffffffffffffffffffffffffffffffffffffffff8111156126125761261161218c565b5b92915050565b7f68747470733a2f2f000000000000000000000000000000000000000000000000600082015250565b600061264e6008836120d2565b915061265982612618565b600882019050919050565b7f2f636f6e7472616374732e6a736f6e0000000000000000000000000000000000600082015250565b600061269a600f836120d2565b91506126a582612664565b600f82019050919050565b60006126bb82612641565b91506126c782846124cf565b91506126d28261268d565b915081905092915050565b6126e681611e0c565b82525050565b60007fffffffff0000000000000000000000000000000000000000000000000000000082169050919050565b612721816126ec565b82525050565b600081519050919050565b600082825260208201905092915050565b600061274e82612727565b6127588185612732565b93506127688185602086016124a5565b61277181611c04565b840191505092915050565b600061010082019050612792600083018b611dbb565b61279f602083018a611dd4565b6127ac60408301896126dd565b6127b96060830188611dbb565b6127c66080830187612718565b6127d360a0830186611dd4565b6127e060c0830185611dd4565b81810360e08301526127f28184612743565b90509998505050505050505050565b7f4e487b7100000000000000000000000000000000000000000000000000000000600052601260045260246000fd5b600061283b82611dca565b915061284683611dca565b92508261285657612855612801565b5b828206905092915050565b600061286c82611dca565b915061287783611dca565b925082820390508181111561288f5761288e61218c565b5b92915050565b60006128b06128ab6128a684611d89565b6122ab565b611d89565b9050919050565b60006128c282612895565b9050919050565b60006128d4826128b7565b9050919050565b60008160601b9050919050565b60006128f3826128db565b9050919050565b6000612905826128e8565b9050919050565b61291d612918826128c9565b6128fa565b82525050565b6000819050919050565b61293e61293982611dca565b612923565b82525050565b6000612950828561290c565b601482019150612960828461292d565b6020820191508190509392505050565b60006060820190506129856000830186611dbb565b6129926020830185611dd4565b81810360408301526129a48184612743565b9050949350505050565b7f756e61626c6520746f207472616e73666572416e6443616c6c20746f206f726160008201527f636c650000000000000000000000000000000000000000000000000000000000602082015250565b6000612a0a602383611f4f565b9150612a15826129ae565b604082019050919050565b60006020820190508181036000830152612a39816129fd565b9050919050565b6000612a4b82611dca565b9150612a5683611dca565b9250828202612a6481611dca565b91508282048414831517612a7b57612a7a61218c565b5b5092915050565b60008160011c9050919050565b6000808291508390505b6001851115612ad957808604811115612ab557612ab461218c565b5b6001851615612ac45780820291505b8081029050612ad285612a82565b9450612a99565b94509492505050565b600082612af25760019050612bae565b81612b005760009050612bae565b8160018114612b165760028114612b2057612b4f565b6001915050612bae565b60ff841115612b3257612b3161218c565b5b8360020a915084821115612b4957612b4861218c565b5b50612bae565b5060208310610133831016604e8410600b8410161715612b845782820a905083811115612b7f57612b7e61218c565b5b612bae565b612b918484846001612a8f565b92509050818404811115612ba857612ba761218c565b5b81810290505b9392505050565b6000612bc082611dca565b9150612bcb83611dca565b9250612bf87fffffffffffffffffffffffffffffffffffffffffffffffffffffffffffffffff8484612ae2565b90509291505056fea2646970667358221220b9b8c27c354b9672503d6928a10419054705e7ceaa376d5b3473dfc77ebd5e0a64736f6c63430008110033",
  "devdoc": {
    "kind": "dev",
    "methods": {},
    "version": 1
  },
  "userdoc": {
    "kind": "user",
    "methods": {},
    "version": 1
  },
  "storageLayout": {
    "storage": [
      {
        "astId": 319,
        "contract": "contracts/DomainContractRegistry.sol:DomainContractRegistry",
        "label": "s_ens",
        "offset": 0,
        "slot": "0",
        "type": "t_contract(ENSInterface)974"
      },
      {
        "astId": 321,
        "contract": "contracts/DomainContractRegistry.sol:DomainContractRegistry",
        "label": "s_ensNode",
        "offset": 0,
        "slot": "1",
        "type": "t_bytes32"
      },
      {
        "astId": 324,
        "contract": "contracts/DomainContractRegistry.sol:DomainContractRegistry",
        "label": "s_link",
        "offset": 0,
        "slot": "2",
        "type": "t_contract(LinkTokenInterface)1069"
      },
      {
        "astId": 327,
        "contract": "contracts/DomainContractRegistry.sol:DomainContractRegistry",
        "label": "s_oracle",
        "offset": 0,
        "slot": "3",
        "type": "t_contract(OperatorInterface)1149"
      },
      {
        "astId": 330,
        "contract": "contracts/DomainContractRegistry.sol:DomainContractRegistry",
        "label": "s_requestCount",
        "offset": 0,
        "slot": "4",
        "type": "t_uint256"
      },
      {
        "astId": 334,
        "contract": "contracts/DomainContractRegistry.sol:DomainContractRegistry",
        "label": "s_pendingRequests",
        "offset": 0,
        "slot": "5",
        "type": "t_mapping(t_bytes32,t_address)"
      },
      {
        "astId": 2213,
        "contract": "contracts/DomainContractRegistry.sol:DomainContractRegistry",
        "label": "jobId",
        "offset": 0,
        "slot": "6",
        "type": "t_bytes32"
      },
      {
        "astId": 2215,
        "contract": "contracts/DomainContractRegistry.sol:DomainContractRegistry",
        "label": "fee",
        "offset": 0,
        "slot": "7",
        "type": "t_uint256"
      },
      {
        "astId": 2217,
        "contract": "contracts/DomainContractRegistry.sol:DomainContractRegistry",
        "label": "domain",
        "offset": 0,
        "slot": "8",
        "type": "t_string_storage"
      },
      {
        "astId": 2220,
        "contract": "contracts/DomainContractRegistry.sol:DomainContractRegistry",
        "label": "dappRegistry",
        "offset": 0,
        "slot": "9",
        "type": "t_contract(IDappRegistry)2191"
      },
      {
        "astId": 2225,
        "contract": "contracts/DomainContractRegistry.sol:DomainContractRegistry",
        "label": "registryMap",
        "offset": 0,
        "slot": "10",
        "type": "t_mapping(t_string_memory_ptr,t_struct(RegistryInfo)2206_storage)"
      },
      {
        "astId": 2230,
        "contract": "contracts/DomainContractRegistry.sol:DomainContractRegistry",
        "label": "recordTransitionMap",
        "offset": 0,
        "slot": "11",
        "type": "t_mapping(t_string_memory_ptr,t_struct(RecordTransition)2211_storage)"
      }
    ],
    "types": {
      "t_address": {
        "encoding": "inplace",
        "label": "address",
        "numberOfBytes": "20"
      },
      "t_bytes32": {
        "encoding": "inplace",
        "label": "bytes32",
        "numberOfBytes": "32"
      },
      "t_contract(ENSInterface)974": {
        "encoding": "inplace",
        "label": "contract ENSInterface",
        "numberOfBytes": "20"
      },
      "t_contract(IDappRegistry)2191": {
        "encoding": "inplace",
        "label": "contract IDappRegistry",
        "numberOfBytes": "20"
      },
      "t_contract(LinkTokenInterface)1069": {
        "encoding": "inplace",
        "label": "contract LinkTokenInterface",
        "numberOfBytes": "20"
      },
      "t_contract(OperatorInterface)1149": {
        "encoding": "inplace",
        "label": "contract OperatorInterface",
        "numberOfBytes": "20"
      },
      "t_mapping(t_bytes32,t_address)": {
        "encoding": "mapping",
        "key": "t_bytes32",
        "label": "mapping(bytes32 => address)",
        "numberOfBytes": "32",
        "value": "t_address"
      },
      "t_mapping(t_string_memory_ptr,t_struct(RecordTransition)2211_storage)": {
        "encoding": "mapping",
        "key": "t_string_memory_ptr",
        "label": "mapping(string => struct DomainContractRegistry.RecordTransition)",
        "numberOfBytes": "32",
        "value": "t_struct(RecordTransition)2211_storage"
      },
      "t_mapping(t_string_memory_ptr,t_struct(RegistryInfo)2206_storage)": {
        "encoding": "mapping",
        "key": "t_string_memory_ptr",
        "label": "mapping(string => struct DomainContractRegistry.RegistryInfo)",
        "numberOfBytes": "32",
        "value": "t_struct(RegistryInfo)2206_storage"
      },
      "t_string_memory_ptr": {
        "encoding": "bytes",
        "label": "string",
        "numberOfBytes": "32"
      },
      "t_string_storage": {
        "encoding": "bytes",
        "label": "string",
        "numberOfBytes": "32"
      },
      "t_struct(RecordTransition)2211_storage": {
        "encoding": "inplace",
        "label": "struct DomainContractRegistry.RecordTransition",
        "members": [
          {
            "astId": 2208,
            "contract": "contracts/DomainContractRegistry.sol:DomainContractRegistry",
            "label": "dappRegistry",
            "offset": 0,
            "slot": "0",
            "type": "t_address"
          },
          {
            "astId": 2210,
            "contract": "contracts/DomainContractRegistry.sol:DomainContractRegistry",
            "label": "timestamp",
            "offset": 0,
            "slot": "1",
            "type": "t_uint256"
          }
        ],
        "numberOfBytes": "64"
      },
      "t_struct(RegistryInfo)2206_storage": {
        "encoding": "inplace",
        "label": "struct DomainContractRegistry.RegistryInfo",
        "members": [
          {
            "astId": 2203,
            "contract": "contracts/DomainContractRegistry.sol:DomainContractRegistry",
            "label": "dappRegistry",
            "offset": 0,
            "slot": "0",
            "type": "t_address"
          },
          {
            "astId": 2205,
            "contract": "contracts/DomainContractRegistry.sol:DomainContractRegistry",
            "label": "admin",
            "offset": 0,
            "slot": "1",
            "type": "t_address"
          }
        ],
        "numberOfBytes": "64"
      },
      "t_uint256": {
        "encoding": "inplace",
        "label": "uint256",
        "numberOfBytes": "32"
      }
    }
  }
}