{
  "address": "0x450322CF35B004034b6880e62cc78663CBdF78D7",
  "abi": [
    {
      "inputs": [],
      "stateMutability": "nonpayable",
      "type": "constructor"
    },
    {
      "inputs": [],
      "name": "DRC_CoolOffPeriodNotOver",
      "type": "error"
    },
    {
      "anonymous": false,
      "inputs": [
        {
          "indexed": true,
          "internalType": "bytes32",
          "name": "id",
          "type": "bytes32"
        }
      ],
      "name": "ChainlinkCancelled",
      "type": "event"
    },
    {
      "anonymous": false,
      "inputs": [
        {
          "indexed": true,
          "internalType": "bytes32",
          "name": "id",
          "type": "bytes32"
        }
      ],
      "name": "ChainlinkFulfilled",
      "type": "event"
    },
    {
      "anonymous": false,
      "inputs": [
        {
          "indexed": true,
          "internalType": "bytes32",
          "name": "id",
          "type": "bytes32"
        }
      ],
      "name": "ChainlinkRequested",
      "type": "event"
    },
    {
      "anonymous": false,
      "inputs": [
        {
          "indexed": true,
          "internalType": "string",
          "name": "domain",
          "type": "string"
        },
        {
          "indexed": true,
          "internalType": "address",
          "name": "dappRegistry",
          "type": "address"
        },
        {
          "indexed": true,
          "internalType": "address",
          "name": "admin",
          "type": "address"
        }
      ],
      "name": "DappRegistryAdded",
      "type": "event"
    },
    {
      "anonymous": false,
      "inputs": [
        {
          "indexed": true,
          "internalType": "string",
          "name": "domain",
          "type": "string"
        },
        {
          "indexed": true,
          "internalType": "address",
          "name": "dappRegistry",
          "type": "address"
        },
        {
          "indexed": true,
          "internalType": "address",
          "name": "admin",
          "type": "address"
        }
      ],
      "name": "TransitionRecorded",
      "type": "event"
    },
    {
      "inputs": [
        {
          "internalType": "bytes32",
          "name": "_requestId",
          "type": "bytes32"
        },
        {
          "internalType": "bool",
          "name": "result",
          "type": "bool"
        }
      ],
      "name": "fulfill",
      "outputs": [],
      "stateMutability": "nonpayable",
      "type": "function"
    },
    {
      "inputs": [
        {
          "internalType": "bytes32",
          "name": "_requestId",
          "type": "bytes32"
        },
        {
          "internalType": "bool",
          "name": "result",
          "type": "bool"
        }
      ],
      "name": "fulfillRecordTransiton",
      "outputs": [],
      "stateMutability": "nonpayable",
      "type": "function"
    },
    {
      "inputs": [
        {
          "internalType": "string",
          "name": "_domain",
          "type": "string"
        },
        {
          "internalType": "address",
          "name": "_dappRegistry",
          "type": "address"
        }
      ],
      "name": "setDappRegistry",
      "outputs": [],
      "stateMutability": "nonpayable",
      "type": "function"
    }
  ],
  "transactionHash": "0xeb87fa82ed3211ebd57abb495bd6bfdc83fd6b8a9ff112c40a3cd20650f7cbcb",
  "args": [],
  "numDeployments": 2,
  "solcInputHash": "b53d3032d80ff8be0a7227f85d7f3ecb",
  "bytecode": "0x608060405260016004553480156200001657600080fd5b506200003c73779877a7b0d9e8603169ddbd7836e478b4624789620000b960201b60201c565b6200006173bf3f7c8897c93a8d440ba952a035e9e03af742bf620000fd60201b60201c565b7f3265646264376262316661353430343162396663613333626239343030393738600681905550600a670de0b6b3a76400006001620000a191906200017a565b620000ad9190620001f4565b6007819055506200022c565b80600260006101000a81548173ffffffffffffffffffffffffffffffffffffffff021916908373ffffffffffffffffffffffffffffffffffffffff16021790555050565b80600360006101000a81548173ffffffffffffffffffffffffffffffffffffffff021916908373ffffffffffffffffffffffffffffffffffffffff16021790555050565b6000819050919050565b7f4e487b7100000000000000000000000000000000000000000000000000000000600052601160045260246000fd5b6000620001878262000141565b9150620001948362000141565b9250828202620001a48162000141565b91508282048414831517620001be57620001bd6200014b565b5b5092915050565b7f4e487b7100000000000000000000000000000000000000000000000000000000600052601260045260246000fd5b6000620002018262000141565b91506200020e8362000141565b925082620002215762000220620001c5565b5b828204905092915050565b612570806200023c6000396000f3fe608060405234801561001057600080fd5b50600436106100415760003560e01c80634a0a23e4146100465780635c66602614610062578063fd68990a1461007e575b600080fd5b610060600480360381019061005b919061183d565b61009a565b005b61007c60048036038101906100779190611a21565b61045b565b005b6100986004803603810190610093919061183d565b610571565b005b816005600082815260200190815260200160002060009054906101000a900473ffffffffffffffffffffffffffffffffffffffff1673ffffffffffffffffffffffffffffffffffffffff163373ffffffffffffffffffffffffffffffffffffffff161461013c576040517f08c379a000000000000000000000000000000000000000000000000000000000815260040161013390611b00565b60405180910390fd5b6005600082815260200190815260200160002060006101000a81549073ffffffffffffffffffffffffffffffffffffffff0219169055807f7cc135e0cebb02c3480ae5d74d377283180a2601f8f644edf7987b009316c63a60405160405180910390a281156103e25760006008600085815260200190815260200160002060000180546101c890611b4f565b80601f01602080910402602001604051908101604052809291908181526020018280546101f490611b4f565b80156102415780601f1061021657610100808354040283529160200191610241565b820191906000526020600020905b81548152906001019060200180831161022457829003601f168201915b505050505090506008600085815260200190815260200160002060010160009054906101000a900473ffffffffffffffffffffffffffffffffffffffff16600a8260405161028f9190611bf1565b908152602001604051809103902060000160006101000a81548173ffffffffffffffffffffffffffffffffffffffff021916908373ffffffffffffffffffffffffffffffffffffffff16021790555042600a826040516102ef9190611bf1565b9081526020016040518091039020600101819055506008600085815260200190815260200160002060020160009054906101000a900473ffffffffffffffffffffffffffffffffffffffff1673ffffffffffffffffffffffffffffffffffffffff166008600086815260200190815260200160002060010160009054906101000a900473ffffffffffffffffffffffffffffffffffffffff1673ffffffffffffffffffffffffffffffffffffffff16826040516103ac9190611bf1565b60405180910390207f84240358700ae9004ae0fee317e4909af848db92a33baf37f806d3ed077a2fa060405160405180910390a4505b600860008481526020019081526020016000206000808201600061040691906116d7565b6001820160006101000a81549073ffffffffffffffffffffffffffffffffffffffff02191690556002820160006101000a81549073ffffffffffffffffffffffffffffffffffffffff02191690555050505050565b600073ffffffffffffffffffffffffffffffffffffffff166009836040516104839190611bf1565b908152602001604051809103902060000160009054906101000a900473ffffffffffffffffffffffffffffffffffffffff1673ffffffffffffffffffffffffffffffffffffffff161415801561054557503373ffffffffffffffffffffffffffffffffffffffff166009836040516104fb9190611bf1565b908152602001604051809103902060010160009054906101000a900473ffffffffffffffffffffffffffffffffffffffff1673ffffffffffffffffffffffffffffffffffffffff16145b156105625761055c828263fd68990a60e01b6109a2565b5061056d565b61056c8282610b52565b5b5050565b816005600082815260200190815260200160002060009054906101000a900473ffffffffffffffffffffffffffffffffffffffff1673ffffffffffffffffffffffffffffffffffffffff163373ffffffffffffffffffffffffffffffffffffffff1614610613576040517f08c379a000000000000000000000000000000000000000000000000000000000815260040161060a90611b00565b60405180910390fd5b6005600082815260200190815260200160002060006101000a81549073ffffffffffffffffffffffffffffffffffffffff0219169055807f7cc135e0cebb02c3480ae5d74d377283180a2601f8f644edf7987b009316c63a60405160405180910390a2811561092957600060086000858152602001908152602001600020600001805461069f90611b4f565b80601f01602080910402602001604051908101604052809291908181526020018280546106cb90611b4f565b80156107185780601f106106ed57610100808354040283529160200191610718565b820191906000526020600020905b8154815290600101906020018083116106fb57829003601f168201915b505050505090506008600085815260200190815260200160002060010160009054906101000a900473ffffffffffffffffffffffffffffffffffffffff166009826040516107669190611bf1565b908152602001604051809103902060000160006101000a81548173ffffffffffffffffffffffffffffffffffffffff021916908373ffffffffffffffffffffffffffffffffffffffff1602179055506008600085815260200190815260200160002060020160009054906101000a900473ffffffffffffffffffffffffffffffffffffffff166009826040516107fc9190611bf1565b908152602001604051809103902060010160006101000a81548173ffffffffffffffffffffffffffffffffffffffff021916908373ffffffffffffffffffffffffffffffffffffffff1602179055506008600085815260200190815260200160002060020160009054906101000a900473ffffffffffffffffffffffffffffffffffffffff1673ffffffffffffffffffffffffffffffffffffffff166008600086815260200190815260200160002060010160009054906101000a900473ffffffffffffffffffffffffffffffffffffffff1673ffffffffffffffffffffffffffffffffffffffff16826040516108f39190611bf1565b60405180910390207f1627d4dea7e3bf39ca9fcea57d0a5c17494a0d70918f9c47b96aa70da71cd0a460405160405180910390a4505b600860008481526020019081526020016000206000808201600061094d91906116d7565b6001820160006101000a81549073ffffffffffffffffffffffffffffffffffffffff02191690556002820160006101000a81549073ffffffffffffffffffffffffffffffffffffffff02191690555050505050565b6000806109b26006543085610c64565b90506109fe6040518060400160405280600681526020017f646f6d61696e00000000000000000000000000000000000000000000000000008152508683610c959092919063ffffffff16565b610a686040518060400160405280600a81526020017f6472634164647265737300000000000000000000000000000000000000000000815250610a588673ffffffffffffffffffffffffffffffffffffffff166014610cc8565b83610c959092919063ffffffff16565b6000610a7682600754610f04565b905085600860008381526020019081526020016000206000019081610a9b9190611dbe565b50846008600083815260200190815260200160002060010160006101000a81548173ffffffffffffffffffffffffffffffffffffffff021916908373ffffffffffffffffffffffffffffffffffffffff160217905550336008600083815260200190815260200160002060020160006101000a81548173ffffffffffffffffffffffffffffffffffffffff021916908373ffffffffffffffffffffffffffffffffffffffff16021790555080925050509392505050565b8073ffffffffffffffffffffffffffffffffffffffff16600a83604051610b799190611bf1565b908152602001604051809103902060000160009054906101000a900473ffffffffffffffffffffffffffffffffffffffff1673ffffffffffffffffffffffffffffffffffffffff1603610c4c5762093a80600a83604051610bda9190611bf1565b908152602001604051809103902060010154610bf69190611ebf565b421115610c1557610c0f828263fd68990a60e01b6109a2565b50610c47565b6040517f56a1446c00000000000000000000000000000000000000000000000000000000815260040160405180910390fd5b610c60565b610c5e8282634a0a23e460e01b6109a2565b505b5050565b610c6c611717565b610c74611717565b610c8b85858584610f3b909392919063ffffffff16565b9150509392505050565b610cac828460800151610feb90919063ffffffff16565b610cc3818460800151610feb90919063ffffffff16565b505050565b606060006002836002610cdb9190611ef3565b610ce59190611ebf565b67ffffffffffffffff811115610cfe57610cfd611898565b5b6040519080825280601f01601f191660200182016040528015610d305781602001600182028036833780820191505090505b5090507f300000000000000000000000000000000000000000000000000000000000000081600081518110610d6857610d67611f35565b5b60200101907effffffffffffffffffffffffffffffffffffffffffffffffffffffffffffff1916908160001a9053507f780000000000000000000000000000000000000000000000000000000000000081600181518110610dcc57610dcb611f35565b5b60200101907effffffffffffffffffffffffffffffffffffffffffffffffffffffffffffff1916908160001a90535060006001846002610e0c9190611ef3565b610e169190611ebf565b90505b6001811115610eb6577f3031323334353637383961626364656600000000000000000000000000000000600f861660108110610e5857610e57611f35565b5b1a60f81b828281518110610e6f57610e6e611f35565b5b60200101907effffffffffffffffffffffffffffffffffffffffffffffffffffffffffffff1916908160001a905350600485901c945080610eaf90611f64565b9050610e19565b5060008414610efa576040517f08c379a0000000000000000000000000000000000000000000000000000000008152600401610ef190611fd9565b60405180910390fd5b8091505092915050565b6000610f33600360009054906101000a900473ffffffffffffffffffffffffffffffffffffffff168484611010565b905092915050565b610f43611717565b610f5385608001516101006110dc565b508385600001818152505082856020019073ffffffffffffffffffffffffffffffffffffffff16908173ffffffffffffffffffffffffffffffffffffffff16815250508185604001907bffffffffffffffffffffffffffffffffffffffffffffffffffffffff191690817bffffffffffffffffffffffffffffffffffffffffffffffffffffffff191681525050849050949350505050565b610ff88260038351611146565b61100b81836112cb90919063ffffffff16565b505050565b60008060045490506001816110259190611ebf565b6004819055506000634042994660e01b60008087600001513089604001518760018c60800151600001516040516024016110669897969594939291906120b6565b604051602081830303815290604052907bffffffffffffffffffffffffffffffffffffffffffffffffffffffff19166020820180517bffffffffffffffffffffffffffffffffffffffffffffffffffffffff838183161783525050505090506110d1868386846112ed565b925050509392505050565b6110e4611784565b60006020836110f3919061216a565b1461111f57602082611105919061216a565b6020611111919061219b565b8261111c9190611ebf565b91505b81836020018181525050604051808452600081528281016020016040525082905092915050565b60178167ffffffffffffffff161161117d576111778160058460ff16901b60ff16178461148290919063ffffffff16565b506112c6565b60ff8167ffffffffffffffff16116111d3576111ac601860058460ff16901b178461148290919063ffffffff16565b506111cd8167ffffffffffffffff166001856114a29092919063ffffffff16565b506112c5565b61ffff8167ffffffffffffffff161161122a57611203601960058460ff16901b178461148290919063ffffffff16565b506112248167ffffffffffffffff166002856114a29092919063ffffffff16565b506112c4565b63ffffffff8167ffffffffffffffff16116112835761125c601a60058460ff16901b178461148290919063ffffffff16565b5061127d8167ffffffffffffffff166004856114a29092919063ffffffff16565b506112c3565b6112a0601b60058460ff16901b178461148290919063ffffffff16565b506112c18167ffffffffffffffff166008856114a29092919063ffffffff16565b505b5b5b5b505050565b6112d3611784565b6112e5838460000151518485516114c4565b905092915050565b6000308460405160200161130292919061227e565b604051602081830303815290604052805190602001209050846005600083815260200190815260200160002060006101000a81548173ffffffffffffffffffffffffffffffffffffffff021916908373ffffffffffffffffffffffffffffffffffffffff160217905550807fb5e6e01e79f91267dc17b4e6314d5d4d03593d2ceee0fbb452b750bd70ea5af960405160405180910390a2600260009054906101000a900473ffffffffffffffffffffffffffffffffffffffff1673ffffffffffffffffffffffffffffffffffffffff16634000aea08685856040518463ffffffff1660e01b81526004016113f8939291906122aa565b6020604051808303816000875af1158015611417573d6000803e3d6000fd5b505050506040513d601f19601f8201168201806040525081019061143b91906122fd565b61147a576040517f08c379a00000000000000000000000000000000000000000000000000000000081526004016114719061239c565b60405180910390fd5b949350505050565b61148a611784565b61149a83846000015151846115b3565b905092915050565b6114aa611784565b6114bb848560000151518585611609565b90509392505050565b6114cc611784565b82518211156114da57600080fd5b846020015182856114eb9190611ebf565b11156115205761151f8560026115108860200151888761150b9190611ebf565b611697565b61151a9190611ef3565b6116b3565b5b60008086518051876020830101935080888701111561153f5787860182525b60208701925050505b6020841061158657805182526020826115619190611ebf565b91506020816115709190611ebf565b905060208461157f919061219b565b9350611548565b60006001856020036101000a03905080198251168184511681811785525050508692505050949350505050565b6115bb611784565b836020015183106115e1576115e084600286602001516115db9190611ef3565b6116b3565b5b835180516020858301018481538186036115fc576001820183525b5050508390509392505050565b611611611784565b846020015184836116229190611ebf565b111561164a57611649856002868561163a9190611ebf565b6116449190611ef3565b6116b3565b5b600060018361010061165c91906124ef565b611666919061219b565b905085518386820101858319825116178152815185880111156116895784870182525b505085915050949350505050565b6000818311156116a9578290506116ad565b8190505b92915050565b6000826000015190506116c683836110dc565b506116d183826112cb565b50505050565b5080546116e390611b4f565b6000825580601f106116f55750611714565b601f016020900490600052602060002090810190611713919061179e565b5b50565b6040518060a0016040528060008019168152602001600073ffffffffffffffffffffffffffffffffffffffff16815260200160007bffffffffffffffffffffffffffffffffffffffffffffffffffffffff191681526020016000815260200161177e611784565b81525090565b604051806040016040528060608152602001600081525090565b5b808211156117b757600081600090555060010161179f565b5090565b6000604051905090565b600080fd5b600080fd5b6000819050919050565b6117e2816117cf565b81146117ed57600080fd5b50565b6000813590506117ff816117d9565b92915050565b60008115159050919050565b61181a81611805565b811461182557600080fd5b50565b60008135905061183781611811565b92915050565b60008060408385031215611854576118536117c5565b5b6000611862858286016117f0565b925050602061187385828601611828565b9150509250929050565b600080fd5b600080fd5b6000601f19601f8301169050919050565b7f4e487b7100000000000000000000000000000000000000000000000000000000600052604160045260246000fd5b6118d082611887565b810181811067ffffffffffffffff821117156118ef576118ee611898565b5b80604052505050565b60006119026117bb565b905061190e82826118c7565b919050565b600067ffffffffffffffff82111561192e5761192d611898565b5b61193782611887565b9050602081019050919050565b82818337600083830152505050565b600061196661196184611913565b6118f8565b90508281526020810184848401111561198257611981611882565b5b61198d848285611944565b509392505050565b600082601f8301126119aa576119a961187d565b5b81356119ba848260208601611953565b91505092915050565b600073ffffffffffffffffffffffffffffffffffffffff82169050919050565b60006119ee826119c3565b9050919050565b6119fe816119e3565b8114611a0957600080fd5b50565b600081359050611a1b816119f5565b92915050565b60008060408385031215611a3857611a376117c5565b5b600083013567ffffffffffffffff811115611a5657611a556117ca565b5b611a6285828601611995565b9250506020611a7385828601611a0c565b9150509250929050565b600082825260208201905092915050565b7f536f75726365206d75737420626520746865206f7261636c65206f662074686560008201527f2072657175657374000000000000000000000000000000000000000000000000602082015250565b6000611aea602883611a7d565b9150611af582611a8e565b604082019050919050565b60006020820190508181036000830152611b1981611add565b9050919050565b7f4e487b7100000000000000000000000000000000000000000000000000000000600052602260045260246000fd5b60006002820490506001821680611b6757607f821691505b602082108103611b7a57611b79611b20565b5b50919050565b600081519050919050565b600081905092915050565b60005b83811015611bb4578082015181840152602081019050611b99565b60008484015250505050565b6000611bcb82611b80565b611bd58185611b8b565b9350611be5818560208601611b96565b80840191505092915050565b6000611bfd8284611bc0565b915081905092915050565b60008190508160005260206000209050919050565b60006020601f8301049050919050565b600082821b905092915050565b600060088302611c6a7fffffffffffffffffffffffffffffffffffffffffffffffffffffffffffffffff82611c2d565b611c748683611c2d565b95508019841693508086168417925050509392505050565b6000819050919050565b6000819050919050565b6000611cbb611cb6611cb184611c8c565b611c96565b611c8c565b9050919050565b6000819050919050565b611cd583611ca0565b611ce9611ce182611cc2565b848454611c3a565b825550505050565b600090565b611cfe611cf1565b611d09818484611ccc565b505050565b5b81811015611d2d57611d22600082611cf6565b600181019050611d0f565b5050565b601f821115611d7257611d4381611c08565b611d4c84611c1d565b81016020851015611d5b578190505b611d6f611d6785611c1d565b830182611d0e565b50505b505050565b600082821c905092915050565b6000611d9560001984600802611d77565b1980831691505092915050565b6000611dae8383611d84565b9150826002028217905092915050565b611dc782611b80565b67ffffffffffffffff811115611de057611ddf611898565b5b611dea8254611b4f565b611df5828285611d31565b600060209050601f831160018114611e285760008415611e16578287015190505b611e208582611da2565b865550611e88565b601f198416611e3686611c08565b60005b82811015611e5e57848901518255600182019150602085019450602081019050611e39565b86831015611e7b5784890151611e77601f891682611d84565b8355505b6001600288020188555050505b505050505050565b7f4e487b7100000000000000000000000000000000000000000000000000000000600052601160045260246000fd5b6000611eca82611c8c565b9150611ed583611c8c565b9250828201905080821115611eed57611eec611e90565b5b92915050565b6000611efe82611c8c565b9150611f0983611c8c565b9250828202611f1781611c8c565b91508282048414831517611f2e57611f2d611e90565b5b5092915050565b7f4e487b7100000000000000000000000000000000000000000000000000000000600052603260045260246000fd5b6000611f6f82611c8c565b915060008203611f8257611f81611e90565b5b600182039050919050565b7f537472696e67733a20686578206c656e67746820696e73756666696369656e74600082015250565b6000611fc3602083611a7d565b9150611fce82611f8d565b602082019050919050565b60006020820190508181036000830152611ff281611fb6565b9050919050565b612002816119e3565b82525050565b61201181611c8c565b82525050565b612020816117cf565b82525050565b60007fffffffff0000000000000000000000000000000000000000000000000000000082169050919050565b61205b81612026565b82525050565b600081519050919050565b600082825260208201905092915050565b600061208882612061565b612092818561206c565b93506120a2818560208601611b96565b6120ab81611887565b840191505092915050565b6000610100820190506120cc600083018b611ff9565b6120d9602083018a612008565b6120e66040830189612017565b6120f36060830188611ff9565b6121006080830187612052565b61210d60a0830186612008565b61211a60c0830185612008565b81810360e083015261212c818461207d565b90509998505050505050505050565b7f4e487b7100000000000000000000000000000000000000000000000000000000600052601260045260246000fd5b600061217582611c8c565b915061218083611c8c565b9250826121905761218f61213b565b5b828206905092915050565b60006121a682611c8c565b91506121b183611c8c565b92508282039050818111156121c9576121c8611e90565b5b92915050565b60006121ea6121e56121e0846119c3565b611c96565b6119c3565b9050919050565b60006121fc826121cf565b9050919050565b600061220e826121f1565b9050919050565b60008160601b9050919050565b600061222d82612215565b9050919050565b600061223f82612222565b9050919050565b61225761225282612203565b612234565b82525050565b6000819050919050565b61227861227382611c8c565b61225d565b82525050565b600061228a8285612246565b60148201915061229a8284612267565b6020820191508190509392505050565b60006060820190506122bf6000830186611ff9565b6122cc6020830185612008565b81810360408301526122de818461207d565b9050949350505050565b6000815190506122f781611811565b92915050565b600060208284031215612313576123126117c5565b5b6000612321848285016122e8565b91505092915050565b7f756e61626c6520746f207472616e73666572416e6443616c6c20746f206f726160008201527f636c650000000000000000000000000000000000000000000000000000000000602082015250565b6000612386602383611a7d565b91506123918261232a565b604082019050919050565b600060208201905081810360008301526123b581612379565b9050919050565b60008160011c9050919050565b6000808291508390505b6001851115612413578086048111156123ef576123ee611e90565b5b60018516156123fe5780820291505b808102905061240c856123bc565b94506123d3565b94509492505050565b60008261242c57600190506124e8565b8161243a57600090506124e8565b8160018114612450576002811461245a57612489565b60019150506124e8565b60ff84111561246c5761246b611e90565b5b8360020a91508482111561248357612482611e90565b5b506124e8565b5060208310610133831016604e8410600b84101617156124be5782820a9050838111156124b9576124b8611e90565b5b6124e8565b6124cb84848460016123c9565b925090508184048111156124e2576124e1611e90565b5b81810290505b9392505050565b60006124fa82611c8c565b915061250583611c8c565b92506125327fffffffffffffffffffffffffffffffffffffffffffffffffffffffffffffffff848461241c565b90509291505056fea2646970667358221220e932862785c37cb72078762a6908e41a9b70640f71f48591a749af5e3bac90fd64736f6c63430008110033",
  "devdoc": {
    "details": "The Domain Contract Registry contract is used to register the dapp registry for a domain.",
    "kind": "dev",
    "methods": {
      "fulfill(bytes32,bool)": {
        "details": "Callback function for Chainlink request to register or update the dapp registry.",
        "params": {
          "_requestId": "The request id of the Chainlink request",
          "result": "The result of the Chainlink request"
        }
      },
      "fulfillRecordTransiton(bytes32,bool)": {
        "details": "Callback function for Chainlink request to record the transition.",
        "params": {
          "_requestId": "The request id of the Chainlink request",
          "result": "The result of the Chainlink request"
        }
      },
      "setDappRegistry(string,address)": {
        "details": "Set the dapp registry for a domain.",
        "params": {
          "_dappRegistry": "The address of the dapp registry",
          "_domain": "The domain name"
        }
      }
    },
    "title": "Domain Contract Registry",
    "version": 1
  },
  "userdoc": {
    "kind": "user",
    "methods": {
      "fulfill(bytes32,bool)": {
        "notice": "If the response by the chainlink Oracle is true, register or update the dapp registry."
      },
      "fulfillRecordTransiton(bytes32,bool)": {
        "notice": "If the response by the chainlink Oracle is true, record the transition."
      },
      "setDappRegistry(string,address)": {
        "notice": "If a domain is not registered or the owner is changed, record the transition.  If a domain is already registered, only the admin can update the registry. "
      }
    },
    "version": 1
  },
  "storageLayout": {
    "storage": [
      {
        "astId": 319,
        "contract": "contracts/DomainContractRegistry.sol:DomainContractRegistry",
        "label": "s_ens",
        "offset": 0,
        "slot": "0",
        "type": "t_contract(ENSInterface)974"
      },
      {
        "astId": 321,
        "contract": "contracts/DomainContractRegistry.sol:DomainContractRegistry",
        "label": "s_ensNode",
        "offset": 0,
        "slot": "1",
        "type": "t_bytes32"
      },
      {
        "astId": 324,
        "contract": "contracts/DomainContractRegistry.sol:DomainContractRegistry",
        "label": "s_link",
        "offset": 0,
        "slot": "2",
        "type": "t_contract(LinkTokenInterface)1069"
      },
      {
        "astId": 327,
        "contract": "contracts/DomainContractRegistry.sol:DomainContractRegistry",
        "label": "s_oracle",
        "offset": 0,
        "slot": "3",
        "type": "t_contract(OperatorInterface)1149"
      },
      {
        "astId": 330,
        "contract": "contracts/DomainContractRegistry.sol:DomainContractRegistry",
        "label": "s_requestCount",
        "offset": 0,
        "slot": "4",
        "type": "t_uint256"
      },
      {
        "astId": 334,
        "contract": "contracts/DomainContractRegistry.sol:DomainContractRegistry",
        "label": "s_pendingRequests",
        "offset": 0,
        "slot": "5",
        "type": "t_mapping(t_bytes32,t_address)"
      },
      {
        "astId": 3247,
        "contract": "contracts/DomainContractRegistry.sol:DomainContractRegistry",
        "label": "jobId",
        "offset": 0,
        "slot": "6",
        "type": "t_bytes32"
      },
      {
        "astId": 3249,
        "contract": "contracts/DomainContractRegistry.sol:DomainContractRegistry",
        "label": "fee",
        "offset": 0,
        "slot": "7",
        "type": "t_uint256"
      },
      {
        "astId": 3254,
        "contract": "contracts/DomainContractRegistry.sol:DomainContractRegistry",
        "label": "requestToDomainMap",
        "offset": 0,
        "slot": "8",
        "type": "t_mapping(t_bytes32,t_struct(Domain)3245_storage)"
      },
      {
        "astId": 3259,
        "contract": "contracts/DomainContractRegistry.sol:DomainContractRegistry",
        "label": "registryMap",
        "offset": 0,
        "slot": "9",
        "type": "t_mapping(t_string_memory_ptr,t_struct(RegistryInfo)3233_storage)"
      },
      {
        "astId": 3264,
        "contract": "contracts/DomainContractRegistry.sol:DomainContractRegistry",
        "label": "recordTransitionMap",
        "offset": 0,
        "slot": "10",
        "type": "t_mapping(t_string_memory_ptr,t_struct(RecordTransition)3238_storage)"
      }
    ],
    "types": {
      "t_address": {
        "encoding": "inplace",
        "label": "address",
        "numberOfBytes": "20"
      },
      "t_bytes32": {
        "encoding": "inplace",
        "label": "bytes32",
        "numberOfBytes": "32"
      },
      "t_contract(ENSInterface)974": {
        "encoding": "inplace",
        "label": "contract ENSInterface",
        "numberOfBytes": "20"
      },
      "t_contract(LinkTokenInterface)1069": {
        "encoding": "inplace",
        "label": "contract LinkTokenInterface",
        "numberOfBytes": "20"
      },
      "t_contract(OperatorInterface)1149": {
        "encoding": "inplace",
        "label": "contract OperatorInterface",
        "numberOfBytes": "20"
      },
      "t_mapping(t_bytes32,t_address)": {
        "encoding": "mapping",
        "key": "t_bytes32",
        "label": "mapping(bytes32 => address)",
        "numberOfBytes": "32",
        "value": "t_address"
      },
      "t_mapping(t_bytes32,t_struct(Domain)3245_storage)": {
        "encoding": "mapping",
        "key": "t_bytes32",
        "label": "mapping(bytes32 => struct DomainContractRegistry.Domain)",
        "numberOfBytes": "32",
        "value": "t_struct(Domain)3245_storage"
      },
      "t_mapping(t_string_memory_ptr,t_struct(RecordTransition)3238_storage)": {
        "encoding": "mapping",
        "key": "t_string_memory_ptr",
        "label": "mapping(string => struct DomainContractRegistry.RecordTransition)",
        "numberOfBytes": "32",
        "value": "t_struct(RecordTransition)3238_storage"
      },
      "t_mapping(t_string_memory_ptr,t_struct(RegistryInfo)3233_storage)": {
        "encoding": "mapping",
        "key": "t_string_memory_ptr",
        "label": "mapping(string => struct DomainContractRegistry.RegistryInfo)",
        "numberOfBytes": "32",
        "value": "t_struct(RegistryInfo)3233_storage"
      },
      "t_string_memory_ptr": {
        "encoding": "bytes",
        "label": "string",
        "numberOfBytes": "32"
      },
      "t_string_storage": {
        "encoding": "bytes",
        "label": "string",
        "numberOfBytes": "32"
      },
      "t_struct(Domain)3245_storage": {
        "encoding": "inplace",
        "label": "struct DomainContractRegistry.Domain",
        "members": [
          {
            "astId": 3240,
            "contract": "contracts/DomainContractRegistry.sol:DomainContractRegistry",
            "label": "domain",
            "offset": 0,
            "slot": "0",
            "type": "t_string_storage"
          },
          {
            "astId": 3242,
            "contract": "contracts/DomainContractRegistry.sol:DomainContractRegistry",
            "label": "dappRegistry",
            "offset": 0,
            "slot": "1",
            "type": "t_address"
          },
          {
            "astId": 3244,
            "contract": "contracts/DomainContractRegistry.sol:DomainContractRegistry",
            "label": "admin",
            "offset": 0,
            "slot": "2",
            "type": "t_address"
          }
        ],
        "numberOfBytes": "96"
      },
      "t_struct(RecordTransition)3238_storage": {
        "encoding": "inplace",
        "label": "struct DomainContractRegistry.RecordTransition",
        "members": [
          {
            "astId": 3235,
            "contract": "contracts/DomainContractRegistry.sol:DomainContractRegistry",
            "label": "dappRegistry",
            "offset": 0,
            "slot": "0",
            "type": "t_address"
          },
          {
            "astId": 3237,
            "contract": "contracts/DomainContractRegistry.sol:DomainContractRegistry",
            "label": "timestamp",
            "offset": 0,
            "slot": "1",
            "type": "t_uint256"
          }
        ],
        "numberOfBytes": "64"
      },
      "t_struct(RegistryInfo)3233_storage": {
        "encoding": "inplace",
        "label": "struct DomainContractRegistry.RegistryInfo",
        "members": [
          {
            "astId": 3230,
            "contract": "contracts/DomainContractRegistry.sol:DomainContractRegistry",
            "label": "dappRegistry",
            "offset": 0,
            "slot": "0",
            "type": "t_address"
          },
          {
            "astId": 3232,
            "contract": "contracts/DomainContractRegistry.sol:DomainContractRegistry",
            "label": "admin",
            "offset": 0,
            "slot": "1",
            "type": "t_address"
          }
        ],
        "numberOfBytes": "64"
      },
      "t_uint256": {
        "encoding": "inplace",
        "label": "uint256",
        "numberOfBytes": "32"
      }
    }
  }
}