{
  "address": "0xf29f98EBCE671CfcAF638d69b05681dBBA866434",
  "abi": [
    {
      "inputs": [],
      "stateMutability": "nonpayable",
      "type": "constructor"
    },
    {
      "inputs": [],
      "name": "DRC_CoolOffPeriodNotOver",
      "type": "error"
    },
    {
      "anonymous": false,
      "inputs": [
        {
          "indexed": true,
          "internalType": "bytes32",
          "name": "id",
          "type": "bytes32"
        }
      ],
      "name": "ChainlinkCancelled",
      "type": "event"
    },
    {
      "anonymous": false,
      "inputs": [
        {
          "indexed": true,
          "internalType": "bytes32",
          "name": "id",
          "type": "bytes32"
        }
      ],
      "name": "ChainlinkFulfilled",
      "type": "event"
    },
    {
      "anonymous": false,
      "inputs": [
        {
          "indexed": true,
          "internalType": "bytes32",
          "name": "id",
          "type": "bytes32"
        }
      ],
      "name": "ChainlinkRequested",
      "type": "event"
    },
    {
      "anonymous": false,
      "inputs": [
        {
          "indexed": true,
          "internalType": "string",
          "name": "domain",
          "type": "string"
        },
        {
          "indexed": true,
          "internalType": "address",
          "name": "dappRegistry",
          "type": "address"
        },
        {
          "indexed": true,
          "internalType": "address",
          "name": "admin",
          "type": "address"
        }
      ],
      "name": "DappRegistryAdded",
      "type": "event"
    },
    {
      "anonymous": false,
      "inputs": [
        {
          "indexed": true,
          "internalType": "string",
          "name": "domain",
          "type": "string"
        },
        {
          "indexed": true,
          "internalType": "address",
          "name": "dappRegistry",
          "type": "address"
        },
        {
          "indexed": true,
          "internalType": "address",
          "name": "admin",
          "type": "address"
        }
      ],
      "name": "TransitionRecorded",
      "type": "event"
    },
    {
      "inputs": [
        {
          "internalType": "bytes32",
          "name": "_requestId",
          "type": "bytes32"
        },
        {
          "internalType": "bool",
          "name": "result",
          "type": "bool"
        }
      ],
      "name": "fulfill",
      "outputs": [],
      "stateMutability": "nonpayable",
      "type": "function"
    },
    {
      "inputs": [
        {
          "internalType": "bytes32",
          "name": "_requestId",
          "type": "bytes32"
        },
        {
          "internalType": "bool",
          "name": "result",
          "type": "bool"
        }
      ],
      "name": "fulfillRecordTransiton",
      "outputs": [],
      "stateMutability": "nonpayable",
      "type": "function"
    },
    {
      "inputs": [
        {
          "internalType": "string",
          "name": "_domain",
          "type": "string"
        }
      ],
      "name": "getAdmin",
      "outputs": [
        {
          "internalType": "address",
          "name": "",
          "type": "address"
        }
      ],
      "stateMutability": "view",
      "type": "function"
    },
    {
      "inputs": [
        {
          "internalType": "string",
          "name": "_domain",
          "type": "string"
        }
      ],
      "name": "getDappRegistry",
      "outputs": [
        {
          "internalType": "address",
          "name": "",
          "type": "address"
        }
      ],
      "stateMutability": "view",
      "type": "function"
    },
    {
      "inputs": [
        {
          "internalType": "string",
          "name": "_domain",
          "type": "string"
        }
      ],
      "name": "getRecordTransition",
      "outputs": [
        {
          "internalType": "address",
          "name": "",
          "type": "address"
        },
        {
          "internalType": "uint256",
          "name": "",
          "type": "uint256"
        }
      ],
      "stateMutability": "view",
      "type": "function"
    },
    {
      "inputs": [
        {
          "internalType": "string",
          "name": "_domain",
          "type": "string"
        },
        {
          "internalType": "address",
          "name": "_dappRegistry",
          "type": "address"
        }
      ],
      "name": "setDappRegistry",
      "outputs": [
        {
          "internalType": "bytes32",
          "name": "",
          "type": "bytes32"
        }
      ],
      "stateMutability": "nonpayable",
      "type": "function"
    }
  ],
  "transactionHash": "0xa51af748fa09478a7cab8aca75f1d779dd517596fed178c53800b12380d2cffe",
  "args": [],
  "numDeployments": 3,
  "solcInputHash": "2b4f8cb1c9ef0148f7944d7818083da9",
  "bytecode": "0x608060405260016004553480156200001657600080fd5b506200003c73779877a7b0d9e8603169ddbd7836e478b4624789620000b960201b60201c565b6200006173bf3f7c8897c93a8d440ba952a035e9e03af742bf620000fd60201b60201c565b7f3265646264376262316661353430343162396663613333626239343030393738600681905550600a670de0b6b3a76400006001620000a191906200017a565b620000ad9190620001f4565b6007819055506200022c565b80600260006101000a81548173ffffffffffffffffffffffffffffffffffffffff021916908373ffffffffffffffffffffffffffffffffffffffff16021790555050565b80600360006101000a81548173ffffffffffffffffffffffffffffffffffffffff021916908373ffffffffffffffffffffffffffffffffffffffff16021790555050565b6000819050919050565b7f4e487b7100000000000000000000000000000000000000000000000000000000600052601160045260246000fd5b6000620001878262000141565b9150620001948362000141565b9250828202620001a48162000141565b91508282048414831517620001be57620001bd6200014b565b5b5092915050565b7f4e487b7100000000000000000000000000000000000000000000000000000000600052601260045260246000fd5b6000620002018262000141565b91506200020e8362000141565b925082620002215762000220620001c5565b5b828204905092915050565b6127eb806200023c6000396000f3fe608060405234801561001057600080fd5b50600436106100625760003560e01c8063423016f9146100675780634a0a23e4146100975780635c666026146100b3578063c6182407146100e3578063e6d218d914610114578063fd68990a14610144575b600080fd5b610081600480360381019061007c9190611ae8565b610160565b60405161008e9190611b72565b60405180910390f35b6100b160048036038101906100ac9190611bfb565b6101ab565b005b6100cd60048036038101906100c89190611c67565b61056c565b6040516100da9190611cd2565b60405180910390f35b6100fd60048036038101906100f89190611ae8565b610688565b60405161010b929190611d06565b60405180910390f35b61012e60048036038101906101299190611ae8565b6106f8565b60405161013b9190611b72565b60405180910390f35b61015e60048036038101906101599190611bfb565b610743565b005b60006009826040516101729190611da0565b908152602001604051809103902060000160009054906101000a900473ffffffffffffffffffffffffffffffffffffffff169050919050565b816005600082815260200190815260200160002060009054906101000a900473ffffffffffffffffffffffffffffffffffffffff1673ffffffffffffffffffffffffffffffffffffffff163373ffffffffffffffffffffffffffffffffffffffff161461024d576040517f08c379a000000000000000000000000000000000000000000000000000000000815260040161024490611e3a565b60405180910390fd5b6005600082815260200190815260200160002060006101000a81549073ffffffffffffffffffffffffffffffffffffffff0219169055807f7cc135e0cebb02c3480ae5d74d377283180a2601f8f644edf7987b009316c63a60405160405180910390a281156104f35760006008600085815260200190815260200160002060000180546102d990611e89565b80601f016020809104026020016040519081016040528092919081815260200182805461030590611e89565b80156103525780601f1061032757610100808354040283529160200191610352565b820191906000526020600020905b81548152906001019060200180831161033557829003601f168201915b505050505090506008600085815260200190815260200160002060010160009054906101000a900473ffffffffffffffffffffffffffffffffffffffff16600a826040516103a09190611da0565b908152602001604051809103902060000160006101000a81548173ffffffffffffffffffffffffffffffffffffffff021916908373ffffffffffffffffffffffffffffffffffffffff16021790555042600a826040516104009190611da0565b9081526020016040518091039020600101819055506008600085815260200190815260200160002060020160009054906101000a900473ffffffffffffffffffffffffffffffffffffffff1673ffffffffffffffffffffffffffffffffffffffff166008600086815260200190815260200160002060010160009054906101000a900473ffffffffffffffffffffffffffffffffffffffff1673ffffffffffffffffffffffffffffffffffffffff16826040516104bd9190611da0565b60405180910390207f84240358700ae9004ae0fee317e4909af848db92a33baf37f806d3ed077a2fa060405160405180910390a4505b600860008481526020019081526020016000206000808201600061051791906118aa565b6001820160006101000a81549073ffffffffffffffffffffffffffffffffffffffff02191690556002820160006101000a81549073ffffffffffffffffffffffffffffffffffffffff02191690555050505050565b60008073ffffffffffffffffffffffffffffffffffffffff166009846040516105959190611da0565b908152602001604051809103902060000160009054906101000a900473ffffffffffffffffffffffffffffffffffffffff1673ffffffffffffffffffffffffffffffffffffffff161415801561065757503373ffffffffffffffffffffffffffffffffffffffff1660098460405161060d9190611da0565b908152602001604051809103902060010160009054906101000a900473ffffffffffffffffffffffffffffffffffffffff1673ffffffffffffffffffffffffffffffffffffffff16145b156106755761066e838363fd68990a60e01b610b74565b9050610682565b61067f8383610d24565b90505b92915050565b600080600a8360405161069b9190611da0565b908152602001604051809103902060000160009054906101000a900473ffffffffffffffffffffffffffffffffffffffff16600a846040516106dd9190611da0565b90815260200160405180910390206001015491509150915091565b600060098260405161070a9190611da0565b908152602001604051809103902060010160009054906101000a900473ffffffffffffffffffffffffffffffffffffffff169050919050565b816005600082815260200190815260200160002060009054906101000a900473ffffffffffffffffffffffffffffffffffffffff1673ffffffffffffffffffffffffffffffffffffffff163373ffffffffffffffffffffffffffffffffffffffff16146107e5576040517f08c379a00000000000000000000000000000000000000000000000000000000081526004016107dc90611e3a565b60405180910390fd5b6005600082815260200190815260200160002060006101000a81549073ffffffffffffffffffffffffffffffffffffffff0219169055807f7cc135e0cebb02c3480ae5d74d377283180a2601f8f644edf7987b009316c63a60405160405180910390a28115610afb57600060086000858152602001908152602001600020600001805461087190611e89565b80601f016020809104026020016040519081016040528092919081815260200182805461089d90611e89565b80156108ea5780601f106108bf576101008083540402835291602001916108ea565b820191906000526020600020905b8154815290600101906020018083116108cd57829003601f168201915b505050505090506008600085815260200190815260200160002060010160009054906101000a900473ffffffffffffffffffffffffffffffffffffffff166009826040516109389190611da0565b908152602001604051809103902060000160006101000a81548173ffffffffffffffffffffffffffffffffffffffff021916908373ffffffffffffffffffffffffffffffffffffffff1602179055506008600085815260200190815260200160002060020160009054906101000a900473ffffffffffffffffffffffffffffffffffffffff166009826040516109ce9190611da0565b908152602001604051809103902060010160006101000a81548173ffffffffffffffffffffffffffffffffffffffff021916908373ffffffffffffffffffffffffffffffffffffffff1602179055506008600085815260200190815260200160002060020160009054906101000a900473ffffffffffffffffffffffffffffffffffffffff1673ffffffffffffffffffffffffffffffffffffffff166008600086815260200190815260200160002060010160009054906101000a900473ffffffffffffffffffffffffffffffffffffffff1673ffffffffffffffffffffffffffffffffffffffff1682604051610ac59190611da0565b60405180910390207f1627d4dea7e3bf39ca9fcea57d0a5c17494a0d70918f9c47b96aa70da71cd0a460405160405180910390a4505b6008600084815260200190815260200160002060008082016000610b1f91906118aa565b6001820160006101000a81549073ffffffffffffffffffffffffffffffffffffffff02191690556002820160006101000a81549073ffffffffffffffffffffffffffffffffffffffff02191690555050505050565b600080610b846006543085610e37565b9050610bd06040518060400160405280600681526020017f646f6d61696e00000000000000000000000000000000000000000000000000008152508683610e689092919063ffffffff16565b610c3a6040518060400160405280600a81526020017f6472634164647265737300000000000000000000000000000000000000000000815250610c2a8673ffffffffffffffffffffffffffffffffffffffff166014610e9b565b83610e689092919063ffffffff16565b6000610c48826007546110d7565b905085600860008381526020019081526020016000206000019081610c6d9190612066565b50846008600083815260200190815260200160002060010160006101000a81548173ffffffffffffffffffffffffffffffffffffffff021916908373ffffffffffffffffffffffffffffffffffffffff160217905550336008600083815260200190815260200160002060020160006101000a81548173ffffffffffffffffffffffffffffffffffffffff021916908373ffffffffffffffffffffffffffffffffffffffff16021790555080925050509392505050565b60008173ffffffffffffffffffffffffffffffffffffffff16600a84604051610d4d9190611da0565b908152602001604051809103902060000160009054906101000a900473ffffffffffffffffffffffffffffffffffffffff1673ffffffffffffffffffffffffffffffffffffffff1603610e1c5762093a80600a84604051610dae9190611da0565b908152602001604051809103902060010154610dca9190612167565b421115610dea57610de3838363fd68990a60e01b610b74565b9050610e31565b6040517f56a1446c00000000000000000000000000000000000000000000000000000000815260040160405180910390fd5b610e2e8383634a0a23e460e01b610b74565b90505b92915050565b610e3f6118ea565b610e476118ea565b610e5e8585858461110e909392919063ffffffff16565b9150509392505050565b610e7f8284608001516111be90919063ffffffff16565b610e968184608001516111be90919063ffffffff16565b505050565b606060006002836002610eae919061219b565b610eb89190612167565b67ffffffffffffffff811115610ed157610ed06119bd565b5b6040519080825280601f01601f191660200182016040528015610f035781602001600182028036833780820191505090505b5090507f300000000000000000000000000000000000000000000000000000000000000081600081518110610f3b57610f3a6121dd565b5b60200101907effffffffffffffffffffffffffffffffffffffffffffffffffffffffffffff1916908160001a9053507f780000000000000000000000000000000000000000000000000000000000000081600181518110610f9f57610f9e6121dd565b5b60200101907effffffffffffffffffffffffffffffffffffffffffffffffffffffffffffff1916908160001a90535060006001846002610fdf919061219b565b610fe99190612167565b90505b6001811115611089577f3031323334353637383961626364656600000000000000000000000000000000600f86166010811061102b5761102a6121dd565b5b1a60f81b828281518110611042576110416121dd565b5b60200101907effffffffffffffffffffffffffffffffffffffffffffffffffffffffffffff1916908160001a905350600485901c9450806110829061220c565b9050610fec565b50600084146110cd576040517f08c379a00000000000000000000000000000000000000000000000000000000081526004016110c490612281565b60405180910390fd5b8091505092915050565b6000611106600360009054906101000a900473ffffffffffffffffffffffffffffffffffffffff1684846111e3565b905092915050565b6111166118ea565b61112685608001516101006112af565b508385600001818152505082856020019073ffffffffffffffffffffffffffffffffffffffff16908173ffffffffffffffffffffffffffffffffffffffff16815250508185604001907bffffffffffffffffffffffffffffffffffffffffffffffffffffffff191690817bffffffffffffffffffffffffffffffffffffffffffffffffffffffff191681525050849050949350505050565b6111cb8260038351611319565b6111de818361149e90919063ffffffff16565b505050565b60008060045490506001816111f89190612167565b6004819055506000634042994660e01b60008087600001513089604001518760018c6080015160000151604051602401611239989796959493929190612331565b604051602081830303815290604052907bffffffffffffffffffffffffffffffffffffffffffffffffffffffff19166020820180517bffffffffffffffffffffffffffffffffffffffffffffffffffffffff838183161783525050505090506112a4868386846114c0565b925050509392505050565b6112b7611957565b60006020836112c691906123e5565b146112f2576020826112d891906123e5565b60206112e49190612416565b826112ef9190612167565b91505b81836020018181525050604051808452600081528281016020016040525082905092915050565b60178167ffffffffffffffff16116113505761134a8160058460ff16901b60ff16178461165590919063ffffffff16565b50611499565b60ff8167ffffffffffffffff16116113a65761137f601860058460ff16901b178461165590919063ffffffff16565b506113a08167ffffffffffffffff166001856116759092919063ffffffff16565b50611498565b61ffff8167ffffffffffffffff16116113fd576113d6601960058460ff16901b178461165590919063ffffffff16565b506113f78167ffffffffffffffff166002856116759092919063ffffffff16565b50611497565b63ffffffff8167ffffffffffffffff16116114565761142f601a60058460ff16901b178461165590919063ffffffff16565b506114508167ffffffffffffffff166004856116759092919063ffffffff16565b50611496565b611473601b60058460ff16901b178461165590919063ffffffff16565b506114948167ffffffffffffffff166008856116759092919063ffffffff16565b505b5b5b5b505050565b6114a6611957565b6114b883846000015151848551611697565b905092915050565b600030846040516020016114d59291906124f9565b604051602081830303815290604052805190602001209050846005600083815260200190815260200160002060006101000a81548173ffffffffffffffffffffffffffffffffffffffff021916908373ffffffffffffffffffffffffffffffffffffffff160217905550807fb5e6e01e79f91267dc17b4e6314d5d4d03593d2ceee0fbb452b750bd70ea5af960405160405180910390a2600260009054906101000a900473ffffffffffffffffffffffffffffffffffffffff1673ffffffffffffffffffffffffffffffffffffffff16634000aea08685856040518463ffffffff1660e01b81526004016115cb93929190612525565b6020604051808303816000875af11580156115ea573d6000803e3d6000fd5b505050506040513d601f19601f8201168201806040525081019061160e9190612578565b61164d576040517f08c379a000000000000000000000000000000000000000000000000000000000815260040161164490612617565b60405180910390fd5b949350505050565b61165d611957565b61166d8384600001515184611786565b905092915050565b61167d611957565b61168e8485600001515185856117dc565b90509392505050565b61169f611957565b82518211156116ad57600080fd5b846020015182856116be9190612167565b11156116f3576116f28560026116e3886020015188876116de9190612167565b61186a565b6116ed919061219b565b611886565b5b6000808651805187602083010193508088870111156117125787860182525b60208701925050505b6020841061175957805182526020826117349190612167565b91506020816117439190612167565b90506020846117529190612416565b935061171b565b60006001856020036101000a03905080198251168184511681811785525050508692505050949350505050565b61178e611957565b836020015183106117b4576117b384600286602001516117ae919061219b565b611886565b5b835180516020858301018481538186036117cf576001820183525b5050508390509392505050565b6117e4611957565b846020015184836117f59190612167565b111561181d5761181c856002868561180d9190612167565b611817919061219b565b611886565b5b600060018361010061182f919061276a565b6118399190612416565b9050855183868201018583198251161781528151858801111561185c5784870182525b505085915050949350505050565b60008183111561187c57829050611880565b8190505b92915050565b60008260000151905061189983836112af565b506118a4838261149e565b50505050565b5080546118b690611e89565b6000825580601f106118c857506118e7565b601f0160209004906000526020600020908101906118e69190611971565b5b50565b6040518060a0016040528060008019168152602001600073ffffffffffffffffffffffffffffffffffffffff16815260200160007bffffffffffffffffffffffffffffffffffffffffffffffffffffffff1916815260200160008152602001611951611957565b81525090565b604051806040016040528060608152602001600081525090565b5b8082111561198a576000816000905550600101611972565b5090565b6000604051905090565b600080fd5b600080fd5b600080fd5b600080fd5b6000601f19601f8301169050919050565b7f4e487b7100000000000000000000000000000000000000000000000000000000600052604160045260246000fd5b6119f5826119ac565b810181811067ffffffffffffffff82111715611a1457611a136119bd565b5b80604052505050565b6000611a2761198e565b9050611a3382826119ec565b919050565b600067ffffffffffffffff821115611a5357611a526119bd565b5b611a5c826119ac565b9050602081019050919050565b82818337600083830152505050565b6000611a8b611a8684611a38565b611a1d565b905082815260208101848484011115611aa757611aa66119a7565b5b611ab2848285611a69565b509392505050565b600082601f830112611acf57611ace6119a2565b5b8135611adf848260208601611a78565b91505092915050565b600060208284031215611afe57611afd611998565b5b600082013567ffffffffffffffff811115611b1c57611b1b61199d565b5b611b2884828501611aba565b91505092915050565b600073ffffffffffffffffffffffffffffffffffffffff82169050919050565b6000611b5c82611b31565b9050919050565b611b6c81611b51565b82525050565b6000602082019050611b876000830184611b63565b92915050565b6000819050919050565b611ba081611b8d565b8114611bab57600080fd5b50565b600081359050611bbd81611b97565b92915050565b60008115159050919050565b611bd881611bc3565b8114611be357600080fd5b50565b600081359050611bf581611bcf565b92915050565b60008060408385031215611c1257611c11611998565b5b6000611c2085828601611bae565b9250506020611c3185828601611be6565b9150509250929050565b611c4481611b51565b8114611c4f57600080fd5b50565b600081359050611c6181611c3b565b92915050565b60008060408385031215611c7e57611c7d611998565b5b600083013567ffffffffffffffff811115611c9c57611c9b61199d565b5b611ca885828601611aba565b9250506020611cb985828601611c52565b9150509250929050565b611ccc81611b8d565b82525050565b6000602082019050611ce76000830184611cc3565b92915050565b6000819050919050565b611d0081611ced565b82525050565b6000604082019050611d1b6000830185611b63565b611d286020830184611cf7565b9392505050565b600081519050919050565b600081905092915050565b60005b83811015611d63578082015181840152602081019050611d48565b60008484015250505050565b6000611d7a82611d2f565b611d848185611d3a565b9350611d94818560208601611d45565b80840191505092915050565b6000611dac8284611d6f565b915081905092915050565b600082825260208201905092915050565b7f536f75726365206d75737420626520746865206f7261636c65206f662074686560008201527f2072657175657374000000000000000000000000000000000000000000000000602082015250565b6000611e24602883611db7565b9150611e2f82611dc8565b604082019050919050565b60006020820190508181036000830152611e5381611e17565b9050919050565b7f4e487b7100000000000000000000000000000000000000000000000000000000600052602260045260246000fd5b60006002820490506001821680611ea157607f821691505b602082108103611eb457611eb3611e5a565b5b50919050565b60008190508160005260206000209050919050565b60006020601f8301049050919050565b600082821b905092915050565b600060088302611f1c7fffffffffffffffffffffffffffffffffffffffffffffffffffffffffffffffff82611edf565b611f268683611edf565b95508019841693508086168417925050509392505050565b6000819050919050565b6000611f63611f5e611f5984611ced565b611f3e565b611ced565b9050919050565b6000819050919050565b611f7d83611f48565b611f91611f8982611f6a565b848454611eec565b825550505050565b600090565b611fa6611f99565b611fb1818484611f74565b505050565b5b81811015611fd557611fca600082611f9e565b600181019050611fb7565b5050565b601f82111561201a57611feb81611eba565b611ff484611ecf565b81016020851015612003578190505b61201761200f85611ecf565b830182611fb6565b50505b505050565b600082821c905092915050565b600061203d6000198460080261201f565b1980831691505092915050565b6000612056838361202c565b9150826002028217905092915050565b61206f82611d2f565b67ffffffffffffffff811115612088576120876119bd565b5b6120928254611e89565b61209d828285611fd9565b600060209050601f8311600181146120d057600084156120be578287015190505b6120c8858261204a565b865550612130565b601f1984166120de86611eba565b60005b82811015612106578489015182556001820191506020850194506020810190506120e1565b86831015612123578489015161211f601f89168261202c565b8355505b6001600288020188555050505b505050505050565b7f4e487b7100000000000000000000000000000000000000000000000000000000600052601160045260246000fd5b600061217282611ced565b915061217d83611ced565b925082820190508082111561219557612194612138565b5b92915050565b60006121a682611ced565b91506121b183611ced565b92508282026121bf81611ced565b915082820484148315176121d6576121d5612138565b5b5092915050565b7f4e487b7100000000000000000000000000000000000000000000000000000000600052603260045260246000fd5b600061221782611ced565b91506000820361222a57612229612138565b5b600182039050919050565b7f537472696e67733a20686578206c656e67746820696e73756666696369656e74600082015250565b600061226b602083611db7565b915061227682612235565b602082019050919050565b6000602082019050818103600083015261229a8161225e565b9050919050565b60007fffffffff0000000000000000000000000000000000000000000000000000000082169050919050565b6122d6816122a1565b82525050565b600081519050919050565b600082825260208201905092915050565b6000612303826122dc565b61230d81856122e7565b935061231d818560208601611d45565b612326816119ac565b840191505092915050565b600061010082019050612347600083018b611b63565b612354602083018a611cf7565b6123616040830189611cc3565b61236e6060830188611b63565b61237b60808301876122cd565b61238860a0830186611cf7565b61239560c0830185611cf7565b81810360e08301526123a781846122f8565b90509998505050505050505050565b7f4e487b7100000000000000000000000000000000000000000000000000000000600052601260045260246000fd5b60006123f082611ced565b91506123fb83611ced565b92508261240b5761240a6123b6565b5b828206905092915050565b600061242182611ced565b915061242c83611ced565b925082820390508181111561244457612443612138565b5b92915050565b600061246561246061245b84611b31565b611f3e565b611b31565b9050919050565b60006124778261244a565b9050919050565b60006124898261246c565b9050919050565b60008160601b9050919050565b60006124a882612490565b9050919050565b60006124ba8261249d565b9050919050565b6124d26124cd8261247e565b6124af565b82525050565b6000819050919050565b6124f36124ee82611ced565b6124d8565b82525050565b600061250582856124c1565b60148201915061251582846124e2565b6020820191508190509392505050565b600060608201905061253a6000830186611b63565b6125476020830185611cf7565b818103604083015261255981846122f8565b9050949350505050565b60008151905061257281611bcf565b92915050565b60006020828403121561258e5761258d611998565b5b600061259c84828501612563565b91505092915050565b7f756e61626c6520746f207472616e73666572416e6443616c6c20746f206f726160008201527f636c650000000000000000000000000000000000000000000000000000000000602082015250565b6000612601602383611db7565b915061260c826125a5565b604082019050919050565b60006020820190508181036000830152612630816125f4565b9050919050565b60008160011c9050919050565b6000808291508390505b600185111561268e5780860481111561266a57612669612138565b5b60018516156126795780820291505b808102905061268785612637565b945061264e565b94509492505050565b6000826126a75760019050612763565b816126b55760009050612763565b81600181146126cb57600281146126d557612704565b6001915050612763565b60ff8411156126e7576126e6612138565b5b8360020a9150848211156126fe576126fd612138565b5b50612763565b5060208310610133831016604e8410600b84101617156127395782820a90508381111561273457612733612138565b5b612763565b6127468484846001612644565b9250905081840481111561275d5761275c612138565b5b81810290505b9392505050565b600061277582611ced565b915061278083611ced565b92506127ad7fffffffffffffffffffffffffffffffffffffffffffffffffffffffffffffffff8484612697565b90509291505056fea2646970667358221220e7e78caee7254f0b5fb8884aadc591aecf2a5ee8a4c0aaa59b6555c978e7cab864736f6c63430008110033",
  "devdoc": {
    "details": "The Domain Contract Registry contract is used to register the dapp registry for a domain.",
    "kind": "dev",
    "methods": {
      "fulfill(bytes32,bool)": {
        "details": "Callback function for Chainlink request to register or update the dapp registry.",
        "params": {
          "_requestId": "The request id of the Chainlink request",
          "result": "The result of the Chainlink request"
        }
      },
      "fulfillRecordTransiton(bytes32,bool)": {
        "details": "Callback function for Chainlink request to record the transition.",
        "params": {
          "_requestId": "The request id of the Chainlink request",
          "result": "The result of the Chainlink request"
        }
      },
      "setDappRegistry(string,address)": {
        "details": "Set the dapp registry for a domain.",
        "params": {
          "_dappRegistry": "The address of the dapp registry",
          "_domain": "The domain name"
        },
        "returns": {
          "_0": "requestId The request id of the Chainlink request"
        }
      }
    },
    "title": "Domain Contract Registry",
    "version": 1
  },
  "userdoc": {
    "kind": "user",
    "methods": {
      "fulfill(bytes32,bool)": {
        "notice": "If the response by the chainlink Oracle is true, register or update the dapp registry."
      },
      "fulfillRecordTransiton(bytes32,bool)": {
        "notice": "If the response by the chainlink Oracle is true, record the transition."
      },
      "setDappRegistry(string,address)": {
        "notice": "If a domain is not registered or the owner is changed, record the transition.  If a domain is already registered, only the admin can update the registry. "
      }
    },
    "version": 1
  },
  "storageLayout": {
    "storage": [
      {
        "astId": 319,
        "contract": "contracts/DomainContractRegistry.sol:DomainContractRegistry",
        "label": "s_ens",
        "offset": 0,
        "slot": "0",
        "type": "t_contract(ENSInterface)974"
      },
      {
        "astId": 321,
        "contract": "contracts/DomainContractRegistry.sol:DomainContractRegistry",
        "label": "s_ensNode",
        "offset": 0,
        "slot": "1",
        "type": "t_bytes32"
      },
      {
        "astId": 324,
        "contract": "contracts/DomainContractRegistry.sol:DomainContractRegistry",
        "label": "s_link",
        "offset": 0,
        "slot": "2",
        "type": "t_contract(LinkTokenInterface)1069"
      },
      {
        "astId": 327,
        "contract": "contracts/DomainContractRegistry.sol:DomainContractRegistry",
        "label": "s_oracle",
        "offset": 0,
        "slot": "3",
        "type": "t_contract(OperatorInterface)1149"
      },
      {
        "astId": 330,
        "contract": "contracts/DomainContractRegistry.sol:DomainContractRegistry",
        "label": "s_requestCount",
        "offset": 0,
        "slot": "4",
        "type": "t_uint256"
      },
      {
        "astId": 334,
        "contract": "contracts/DomainContractRegistry.sol:DomainContractRegistry",
        "label": "s_pendingRequests",
        "offset": 0,
        "slot": "5",
        "type": "t_mapping(t_bytes32,t_address)"
      },
      {
        "astId": 3247,
        "contract": "contracts/DomainContractRegistry.sol:DomainContractRegistry",
        "label": "jobId",
        "offset": 0,
        "slot": "6",
        "type": "t_bytes32"
      },
      {
        "astId": 3249,
        "contract": "contracts/DomainContractRegistry.sol:DomainContractRegistry",
        "label": "fee",
        "offset": 0,
        "slot": "7",
        "type": "t_uint256"
      },
      {
        "astId": 3254,
        "contract": "contracts/DomainContractRegistry.sol:DomainContractRegistry",
        "label": "requestToDomainMap",
        "offset": 0,
        "slot": "8",
        "type": "t_mapping(t_bytes32,t_struct(Domain)3245_storage)"
      },
      {
        "astId": 3259,
        "contract": "contracts/DomainContractRegistry.sol:DomainContractRegistry",
        "label": "registryMap",
        "offset": 0,
        "slot": "9",
        "type": "t_mapping(t_string_memory_ptr,t_struct(RegistryInfo)3233_storage)"
      },
      {
        "astId": 3264,
        "contract": "contracts/DomainContractRegistry.sol:DomainContractRegistry",
        "label": "recordTransitionMap",
        "offset": 0,
        "slot": "10",
        "type": "t_mapping(t_string_memory_ptr,t_struct(RecordTransition)3238_storage)"
      }
    ],
    "types": {
      "t_address": {
        "encoding": "inplace",
        "label": "address",
        "numberOfBytes": "20"
      },
      "t_bytes32": {
        "encoding": "inplace",
        "label": "bytes32",
        "numberOfBytes": "32"
      },
      "t_contract(ENSInterface)974": {
        "encoding": "inplace",
        "label": "contract ENSInterface",
        "numberOfBytes": "20"
      },
      "t_contract(LinkTokenInterface)1069": {
        "encoding": "inplace",
        "label": "contract LinkTokenInterface",
        "numberOfBytes": "20"
      },
      "t_contract(OperatorInterface)1149": {
        "encoding": "inplace",
        "label": "contract OperatorInterface",
        "numberOfBytes": "20"
      },
      "t_mapping(t_bytes32,t_address)": {
        "encoding": "mapping",
        "key": "t_bytes32",
        "label": "mapping(bytes32 => address)",
        "numberOfBytes": "32",
        "value": "t_address"
      },
      "t_mapping(t_bytes32,t_struct(Domain)3245_storage)": {
        "encoding": "mapping",
        "key": "t_bytes32",
        "label": "mapping(bytes32 => struct DomainContractRegistry.Domain)",
        "numberOfBytes": "32",
        "value": "t_struct(Domain)3245_storage"
      },
      "t_mapping(t_string_memory_ptr,t_struct(RecordTransition)3238_storage)": {
        "encoding": "mapping",
        "key": "t_string_memory_ptr",
        "label": "mapping(string => struct DomainContractRegistry.RecordTransition)",
        "numberOfBytes": "32",
        "value": "t_struct(RecordTransition)3238_storage"
      },
      "t_mapping(t_string_memory_ptr,t_struct(RegistryInfo)3233_storage)": {
        "encoding": "mapping",
        "key": "t_string_memory_ptr",
        "label": "mapping(string => struct DomainContractRegistry.RegistryInfo)",
        "numberOfBytes": "32",
        "value": "t_struct(RegistryInfo)3233_storage"
      },
      "t_string_memory_ptr": {
        "encoding": "bytes",
        "label": "string",
        "numberOfBytes": "32"
      },
      "t_string_storage": {
        "encoding": "bytes",
        "label": "string",
        "numberOfBytes": "32"
      },
      "t_struct(Domain)3245_storage": {
        "encoding": "inplace",
        "label": "struct DomainContractRegistry.Domain",
        "members": [
          {
            "astId": 3240,
            "contract": "contracts/DomainContractRegistry.sol:DomainContractRegistry",
            "label": "domain",
            "offset": 0,
            "slot": "0",
            "type": "t_string_storage"
          },
          {
            "astId": 3242,
            "contract": "contracts/DomainContractRegistry.sol:DomainContractRegistry",
            "label": "dappRegistry",
            "offset": 0,
            "slot": "1",
            "type": "t_address"
          },
          {
            "astId": 3244,
            "contract": "contracts/DomainContractRegistry.sol:DomainContractRegistry",
            "label": "admin",
            "offset": 0,
            "slot": "2",
            "type": "t_address"
          }
        ],
        "numberOfBytes": "96"
      },
      "t_struct(RecordTransition)3238_storage": {
        "encoding": "inplace",
        "label": "struct DomainContractRegistry.RecordTransition",
        "members": [
          {
            "astId": 3235,
            "contract": "contracts/DomainContractRegistry.sol:DomainContractRegistry",
            "label": "dappRegistry",
            "offset": 0,
            "slot": "0",
            "type": "t_address"
          },
          {
            "astId": 3237,
            "contract": "contracts/DomainContractRegistry.sol:DomainContractRegistry",
            "label": "timestamp",
            "offset": 0,
            "slot": "1",
            "type": "t_uint256"
          }
        ],
        "numberOfBytes": "64"
      },
      "t_struct(RegistryInfo)3233_storage": {
        "encoding": "inplace",
        "label": "struct DomainContractRegistry.RegistryInfo",
        "members": [
          {
            "astId": 3230,
            "contract": "contracts/DomainContractRegistry.sol:DomainContractRegistry",
            "label": "dappRegistry",
            "offset": 0,
            "slot": "0",
            "type": "t_address"
          },
          {
            "astId": 3232,
            "contract": "contracts/DomainContractRegistry.sol:DomainContractRegistry",
            "label": "admin",
            "offset": 0,
            "slot": "1",
            "type": "t_address"
          }
        ],
        "numberOfBytes": "64"
      },
      "t_uint256": {
        "encoding": "inplace",
        "label": "uint256",
        "numberOfBytes": "32"
      }
    }
  }
}