{
  "address": "0x858C5EC28bbEb9EdF8d9060f055aeCd869Ec8671",
  "abi": [
    {
      "inputs": [],
      "stateMutability": "nonpayable",
      "type": "constructor"
    },
    {
      "inputs": [],
      "name": "DRC_CoolOffPeriodNotOver",
      "type": "error"
    },
    {
      "anonymous": false,
      "inputs": [
        {
          "indexed": true,
          "internalType": "bytes32",
          "name": "id",
          "type": "bytes32"
        }
      ],
      "name": "ChainlinkCancelled",
      "type": "event"
    },
    {
      "anonymous": false,
      "inputs": [
        {
          "indexed": true,
          "internalType": "bytes32",
          "name": "id",
          "type": "bytes32"
        }
      ],
      "name": "ChainlinkFulfilled",
      "type": "event"
    },
    {
      "anonymous": false,
      "inputs": [
        {
          "indexed": true,
          "internalType": "bytes32",
          "name": "id",
          "type": "bytes32"
        }
      ],
      "name": "ChainlinkRequested",
      "type": "event"
    },
    {
      "anonymous": false,
      "inputs": [
        {
          "indexed": true,
          "internalType": "string",
          "name": "domain",
          "type": "string"
        },
        {
          "indexed": true,
          "internalType": "address",
          "name": "dappRegistry",
          "type": "address"
        },
        {
          "indexed": true,
          "internalType": "address",
          "name": "admin",
          "type": "address"
        }
      ],
      "name": "DappRegistryAdded",
      "type": "event"
    },
    {
      "anonymous": false,
      "inputs": [
        {
          "indexed": true,
          "internalType": "string",
          "name": "domain",
          "type": "string"
        },
        {
          "indexed": true,
          "internalType": "address",
          "name": "dappRegistry",
          "type": "address"
        },
        {
          "indexed": true,
          "internalType": "address",
          "name": "admin",
          "type": "address"
        }
      ],
      "name": "TransitionRecorded",
      "type": "event"
    },
    {
      "inputs": [
        {
          "internalType": "bytes32",
          "name": "_requestId",
          "type": "bytes32"
        },
        {
          "internalType": "bool",
          "name": "result",
          "type": "bool"
        }
      ],
      "name": "fulfill",
      "outputs": [],
      "stateMutability": "nonpayable",
      "type": "function"
    },
    {
      "inputs": [
        {
          "internalType": "bytes32",
          "name": "_requestId",
          "type": "bytes32"
        },
        {
          "internalType": "bool",
          "name": "result",
          "type": "bool"
        }
      ],
      "name": "fulfillRecordTransiton",
      "outputs": [],
      "stateMutability": "nonpayable",
      "type": "function"
    },
    {
      "inputs": [
        {
          "internalType": "string",
          "name": "_domain",
          "type": "string"
        }
      ],
      "name": "getAdmin",
      "outputs": [
        {
          "internalType": "address",
          "name": "",
          "type": "address"
        }
      ],
      "stateMutability": "view",
      "type": "function"
    },
    {
      "inputs": [
        {
          "internalType": "string",
          "name": "_domain",
          "type": "string"
        }
      ],
      "name": "getDappRegistry",
      "outputs": [
        {
          "internalType": "address",
          "name": "",
          "type": "address"
        }
      ],
      "stateMutability": "view",
      "type": "function"
    },
    {
      "inputs": [
        {
          "internalType": "string",
          "name": "_domain",
          "type": "string"
        }
      ],
      "name": "getRecordTransition",
      "outputs": [
        {
          "internalType": "address",
          "name": "",
          "type": "address"
        },
        {
          "internalType": "uint256",
          "name": "",
          "type": "uint256"
        }
      ],
      "stateMutability": "view",
      "type": "function"
    },
    {
      "inputs": [
        {
          "internalType": "string",
          "name": "_domain",
          "type": "string"
        },
        {
          "internalType": "address",
          "name": "_dappRegistry",
          "type": "address"
        }
      ],
      "name": "setDappRegistry",
      "outputs": [
        {
          "internalType": "bytes32",
          "name": "",
          "type": "bytes32"
        }
      ],
      "stateMutability": "nonpayable",
      "type": "function"
    }
  ],
  "transactionHash": "0x6a533b351639fb9ac98995dda844bf3b57779f02af41d7ade8bf5363a89c34cd",
  "args": [],
  "numDeployments": 4,
  "solcInputHash": "133130b1c6c4eac538b7d5691c0785f4",
  "bytecode": "0x608060405260016004553480156200001657600080fd5b506200003c73779877a7b0d9e8603169ddbd7836e478b4624789620000b960201b60201c565b6200006173bf3f7c8897c93a8d440ba952a035e9e03af742bf620000fd60201b60201c565b7f3265646264376262316661353430343162396663613333626239343030393738600681905550600a670de0b6b3a76400006001620000a191906200017a565b620000ad9190620001f4565b6007819055506200022c565b80600260006101000a81548173ffffffffffffffffffffffffffffffffffffffff021916908373ffffffffffffffffffffffffffffffffffffffff16021790555050565b80600360006101000a81548173ffffffffffffffffffffffffffffffffffffffff021916908373ffffffffffffffffffffffffffffffffffffffff16021790555050565b6000819050919050565b7f4e487b7100000000000000000000000000000000000000000000000000000000600052601160045260246000fd5b6000620001878262000141565b9150620001948362000141565b9250828202620001a48162000141565b91508282048414831517620001be57620001bd6200014b565b5b5092915050565b7f4e487b7100000000000000000000000000000000000000000000000000000000600052601260045260246000fd5b6000620002018262000141565b91506200020e8362000141565b925082620002215762000220620001c5565b5b828204905092915050565b6127e9806200023c6000396000f3fe608060405234801561001057600080fd5b50600436106100625760003560e01c8063423016f9146100675780634a0a23e4146100975780635c666026146100b3578063c6182407146100e3578063e6d218d914610114578063fd68990a14610144575b600080fd5b610081600480360381019061007c9190611ae6565b610160565b60405161008e9190611b70565b60405180910390f35b6100b160048036038101906100ac9190611bf9565b6101ab565b005b6100cd60048036038101906100c89190611c65565b61056c565b6040516100da9190611cd0565b60405180910390f35b6100fd60048036038101906100f89190611ae6565b610686565b60405161010b929190611d04565b60405180910390f35b61012e60048036038101906101299190611ae6565b6106f6565b60405161013b9190611b70565b60405180910390f35b61015e60048036038101906101599190611bf9565b610741565b005b60006009826040516101729190611d9e565b908152602001604051809103902060000160009054906101000a900473ffffffffffffffffffffffffffffffffffffffff169050919050565b816005600082815260200190815260200160002060009054906101000a900473ffffffffffffffffffffffffffffffffffffffff1673ffffffffffffffffffffffffffffffffffffffff163373ffffffffffffffffffffffffffffffffffffffff161461024d576040517f08c379a000000000000000000000000000000000000000000000000000000000815260040161024490611e38565b60405180910390fd5b6005600082815260200190815260200160002060006101000a81549073ffffffffffffffffffffffffffffffffffffffff0219169055807f7cc135e0cebb02c3480ae5d74d377283180a2601f8f644edf7987b009316c63a60405160405180910390a281156104f35760006008600085815260200190815260200160002060000180546102d990611e87565b80601f016020809104026020016040519081016040528092919081815260200182805461030590611e87565b80156103525780601f1061032757610100808354040283529160200191610352565b820191906000526020600020905b81548152906001019060200180831161033557829003601f168201915b505050505090506008600085815260200190815260200160002060010160009054906101000a900473ffffffffffffffffffffffffffffffffffffffff16600a826040516103a09190611d9e565b908152602001604051809103902060000160006101000a81548173ffffffffffffffffffffffffffffffffffffffff021916908373ffffffffffffffffffffffffffffffffffffffff16021790555042600a826040516104009190611d9e565b9081526020016040518091039020600101819055506008600085815260200190815260200160002060020160009054906101000a900473ffffffffffffffffffffffffffffffffffffffff1673ffffffffffffffffffffffffffffffffffffffff166008600086815260200190815260200160002060010160009054906101000a900473ffffffffffffffffffffffffffffffffffffffff1673ffffffffffffffffffffffffffffffffffffffff16826040516104bd9190611d9e565b60405180910390207f84240358700ae9004ae0fee317e4909af848db92a33baf37f806d3ed077a2fa060405160405180910390a4505b600860008481526020019081526020016000206000808201600061051791906118a8565b6001820160006101000a81549073ffffffffffffffffffffffffffffffffffffffff02191690556002820160006101000a81549073ffffffffffffffffffffffffffffffffffffffff02191690555050505050565b60008073ffffffffffffffffffffffffffffffffffffffff166009846040516105959190611d9e565b908152602001604051809103902060000160009054906101000a900473ffffffffffffffffffffffffffffffffffffffff1673ffffffffffffffffffffffffffffffffffffffff16148061065557503373ffffffffffffffffffffffffffffffffffffffff1660098460405161060b9190611d9e565b908152602001604051809103902060010160009054906101000a900473ffffffffffffffffffffffffffffffffffffffff1673ffffffffffffffffffffffffffffffffffffffff16145b156106735761066c838363fd68990a60e01b610b72565b9050610680565b61067d8383610d22565b90505b92915050565b600080600a836040516106999190611d9e565b908152602001604051809103902060000160009054906101000a900473ffffffffffffffffffffffffffffffffffffffff16600a846040516106db9190611d9e565b90815260200160405180910390206001015491509150915091565b60006009826040516107089190611d9e565b908152602001604051809103902060010160009054906101000a900473ffffffffffffffffffffffffffffffffffffffff169050919050565b816005600082815260200190815260200160002060009054906101000a900473ffffffffffffffffffffffffffffffffffffffff1673ffffffffffffffffffffffffffffffffffffffff163373ffffffffffffffffffffffffffffffffffffffff16146107e3576040517f08c379a00000000000000000000000000000000000000000000000000000000081526004016107da90611e38565b60405180910390fd5b6005600082815260200190815260200160002060006101000a81549073ffffffffffffffffffffffffffffffffffffffff0219169055807f7cc135e0cebb02c3480ae5d74d377283180a2601f8f644edf7987b009316c63a60405160405180910390a28115610af957600060086000858152602001908152602001600020600001805461086f90611e87565b80601f016020809104026020016040519081016040528092919081815260200182805461089b90611e87565b80156108e85780601f106108bd576101008083540402835291602001916108e8565b820191906000526020600020905b8154815290600101906020018083116108cb57829003601f168201915b505050505090506008600085815260200190815260200160002060010160009054906101000a900473ffffffffffffffffffffffffffffffffffffffff166009826040516109369190611d9e565b908152602001604051809103902060000160006101000a81548173ffffffffffffffffffffffffffffffffffffffff021916908373ffffffffffffffffffffffffffffffffffffffff1602179055506008600085815260200190815260200160002060020160009054906101000a900473ffffffffffffffffffffffffffffffffffffffff166009826040516109cc9190611d9e565b908152602001604051809103902060010160006101000a81548173ffffffffffffffffffffffffffffffffffffffff021916908373ffffffffffffffffffffffffffffffffffffffff1602179055506008600085815260200190815260200160002060020160009054906101000a900473ffffffffffffffffffffffffffffffffffffffff1673ffffffffffffffffffffffffffffffffffffffff166008600086815260200190815260200160002060010160009054906101000a900473ffffffffffffffffffffffffffffffffffffffff1673ffffffffffffffffffffffffffffffffffffffff1682604051610ac39190611d9e565b60405180910390207f1627d4dea7e3bf39ca9fcea57d0a5c17494a0d70918f9c47b96aa70da71cd0a460405160405180910390a4505b6008600084815260200190815260200160002060008082016000610b1d91906118a8565b6001820160006101000a81549073ffffffffffffffffffffffffffffffffffffffff02191690556002820160006101000a81549073ffffffffffffffffffffffffffffffffffffffff02191690555050505050565b600080610b826006543085610e35565b9050610bce6040518060400160405280600681526020017f646f6d61696e00000000000000000000000000000000000000000000000000008152508683610e669092919063ffffffff16565b610c386040518060400160405280600a81526020017f6472634164647265737300000000000000000000000000000000000000000000815250610c288673ffffffffffffffffffffffffffffffffffffffff166014610e99565b83610e669092919063ffffffff16565b6000610c46826007546110d5565b905085600860008381526020019081526020016000206000019081610c6b9190612064565b50846008600083815260200190815260200160002060010160006101000a81548173ffffffffffffffffffffffffffffffffffffffff021916908373ffffffffffffffffffffffffffffffffffffffff160217905550336008600083815260200190815260200160002060020160006101000a81548173ffffffffffffffffffffffffffffffffffffffff021916908373ffffffffffffffffffffffffffffffffffffffff16021790555080925050509392505050565b60008173ffffffffffffffffffffffffffffffffffffffff16600a84604051610d4b9190611d9e565b908152602001604051809103902060000160009054906101000a900473ffffffffffffffffffffffffffffffffffffffff1673ffffffffffffffffffffffffffffffffffffffff1603610e1a5762093a80600a84604051610dac9190611d9e565b908152602001604051809103902060010154610dc89190612165565b421115610de857610de1838363fd68990a60e01b610b72565b9050610e2f565b6040517f56a1446c00000000000000000000000000000000000000000000000000000000815260040160405180910390fd5b610e2c8383634a0a23e460e01b610b72565b90505b92915050565b610e3d6118e8565b610e456118e8565b610e5c8585858461110c909392919063ffffffff16565b9150509392505050565b610e7d8284608001516111bc90919063ffffffff16565b610e948184608001516111bc90919063ffffffff16565b505050565b606060006002836002610eac9190612199565b610eb69190612165565b67ffffffffffffffff811115610ecf57610ece6119bb565b5b6040519080825280601f01601f191660200182016040528015610f015781602001600182028036833780820191505090505b5090507f300000000000000000000000000000000000000000000000000000000000000081600081518110610f3957610f386121db565b5b60200101907effffffffffffffffffffffffffffffffffffffffffffffffffffffffffffff1916908160001a9053507f780000000000000000000000000000000000000000000000000000000000000081600181518110610f9d57610f9c6121db565b5b60200101907effffffffffffffffffffffffffffffffffffffffffffffffffffffffffffff1916908160001a90535060006001846002610fdd9190612199565b610fe79190612165565b90505b6001811115611087577f3031323334353637383961626364656600000000000000000000000000000000600f861660108110611029576110286121db565b5b1a60f81b8282815181106110405761103f6121db565b5b60200101907effffffffffffffffffffffffffffffffffffffffffffffffffffffffffffff1916908160001a905350600485901c9450806110809061220a565b9050610fea565b50600084146110cb576040517f08c379a00000000000000000000000000000000000000000000000000000000081526004016110c29061227f565b60405180910390fd5b8091505092915050565b6000611104600360009054906101000a900473ffffffffffffffffffffffffffffffffffffffff1684846111e1565b905092915050565b6111146118e8565b61112485608001516101006112ad565b508385600001818152505082856020019073ffffffffffffffffffffffffffffffffffffffff16908173ffffffffffffffffffffffffffffffffffffffff16815250508185604001907bffffffffffffffffffffffffffffffffffffffffffffffffffffffff191690817bffffffffffffffffffffffffffffffffffffffffffffffffffffffff191681525050849050949350505050565b6111c98260038351611317565b6111dc818361149c90919063ffffffff16565b505050565b60008060045490506001816111f69190612165565b6004819055506000634042994660e01b60008087600001513089604001518760018c608001516000015160405160240161123798979695949392919061232f565b604051602081830303815290604052907bffffffffffffffffffffffffffffffffffffffffffffffffffffffff19166020820180517bffffffffffffffffffffffffffffffffffffffffffffffffffffffff838183161783525050505090506112a2868386846114be565b925050509392505050565b6112b5611955565b60006020836112c491906123e3565b146112f0576020826112d691906123e3565b60206112e29190612414565b826112ed9190612165565b91505b81836020018181525050604051808452600081528281016020016040525082905092915050565b60178167ffffffffffffffff161161134e576113488160058460ff16901b60ff16178461165390919063ffffffff16565b50611497565b60ff8167ffffffffffffffff16116113a45761137d601860058460ff16901b178461165390919063ffffffff16565b5061139e8167ffffffffffffffff166001856116739092919063ffffffff16565b50611496565b61ffff8167ffffffffffffffff16116113fb576113d4601960058460ff16901b178461165390919063ffffffff16565b506113f58167ffffffffffffffff166002856116739092919063ffffffff16565b50611495565b63ffffffff8167ffffffffffffffff16116114545761142d601a60058460ff16901b178461165390919063ffffffff16565b5061144e8167ffffffffffffffff166004856116739092919063ffffffff16565b50611494565b611471601b60058460ff16901b178461165390919063ffffffff16565b506114928167ffffffffffffffff166008856116739092919063ffffffff16565b505b5b5b5b505050565b6114a4611955565b6114b683846000015151848551611695565b905092915050565b600030846040516020016114d39291906124f7565b604051602081830303815290604052805190602001209050846005600083815260200190815260200160002060006101000a81548173ffffffffffffffffffffffffffffffffffffffff021916908373ffffffffffffffffffffffffffffffffffffffff160217905550807fb5e6e01e79f91267dc17b4e6314d5d4d03593d2ceee0fbb452b750bd70ea5af960405160405180910390a2600260009054906101000a900473ffffffffffffffffffffffffffffffffffffffff1673ffffffffffffffffffffffffffffffffffffffff16634000aea08685856040518463ffffffff1660e01b81526004016115c993929190612523565b6020604051808303816000875af11580156115e8573d6000803e3d6000fd5b505050506040513d601f19601f8201168201806040525081019061160c9190612576565b61164b576040517f08c379a000000000000000000000000000000000000000000000000000000000815260040161164290612615565b60405180910390fd5b949350505050565b61165b611955565b61166b8384600001515184611784565b905092915050565b61167b611955565b61168c8485600001515185856117da565b90509392505050565b61169d611955565b82518211156116ab57600080fd5b846020015182856116bc9190612165565b11156116f1576116f08560026116e1886020015188876116dc9190612165565b611868565b6116eb9190612199565b611884565b5b6000808651805187602083010193508088870111156117105787860182525b60208701925050505b6020841061175757805182526020826117329190612165565b91506020816117419190612165565b90506020846117509190612414565b9350611719565b60006001856020036101000a03905080198251168184511681811785525050508692505050949350505050565b61178c611955565b836020015183106117b2576117b184600286602001516117ac9190612199565b611884565b5b835180516020858301018481538186036117cd576001820183525b5050508390509392505050565b6117e2611955565b846020015184836117f39190612165565b111561181b5761181a856002868561180b9190612165565b6118159190612199565b611884565b5b600060018361010061182d9190612768565b6118379190612414565b9050855183868201018583198251161781528151858801111561185a5784870182525b505085915050949350505050565b60008183111561187a5782905061187e565b8190505b92915050565b60008260000151905061189783836112ad565b506118a2838261149c565b50505050565b5080546118b490611e87565b6000825580601f106118c657506118e5565b601f0160209004906000526020600020908101906118e4919061196f565b5b50565b6040518060a0016040528060008019168152602001600073ffffffffffffffffffffffffffffffffffffffff16815260200160007bffffffffffffffffffffffffffffffffffffffffffffffffffffffff191681526020016000815260200161194f611955565b81525090565b604051806040016040528060608152602001600081525090565b5b80821115611988576000816000905550600101611970565b5090565b6000604051905090565b600080fd5b600080fd5b600080fd5b600080fd5b6000601f19601f8301169050919050565b7f4e487b7100000000000000000000000000000000000000000000000000000000600052604160045260246000fd5b6119f3826119aa565b810181811067ffffffffffffffff82111715611a1257611a116119bb565b5b80604052505050565b6000611a2561198c565b9050611a3182826119ea565b919050565b600067ffffffffffffffff821115611a5157611a506119bb565b5b611a5a826119aa565b9050602081019050919050565b82818337600083830152505050565b6000611a89611a8484611a36565b611a1b565b905082815260208101848484011115611aa557611aa46119a5565b5b611ab0848285611a67565b509392505050565b600082601f830112611acd57611acc6119a0565b5b8135611add848260208601611a76565b91505092915050565b600060208284031215611afc57611afb611996565b5b600082013567ffffffffffffffff811115611b1a57611b1961199b565b5b611b2684828501611ab8565b91505092915050565b600073ffffffffffffffffffffffffffffffffffffffff82169050919050565b6000611b5a82611b2f565b9050919050565b611b6a81611b4f565b82525050565b6000602082019050611b856000830184611b61565b92915050565b6000819050919050565b611b9e81611b8b565b8114611ba957600080fd5b50565b600081359050611bbb81611b95565b92915050565b60008115159050919050565b611bd681611bc1565b8114611be157600080fd5b50565b600081359050611bf381611bcd565b92915050565b60008060408385031215611c1057611c0f611996565b5b6000611c1e85828601611bac565b9250506020611c2f85828601611be4565b9150509250929050565b611c4281611b4f565b8114611c4d57600080fd5b50565b600081359050611c5f81611c39565b92915050565b60008060408385031215611c7c57611c7b611996565b5b600083013567ffffffffffffffff811115611c9a57611c9961199b565b5b611ca685828601611ab8565b9250506020611cb785828601611c50565b9150509250929050565b611cca81611b8b565b82525050565b6000602082019050611ce56000830184611cc1565b92915050565b6000819050919050565b611cfe81611ceb565b82525050565b6000604082019050611d196000830185611b61565b611d266020830184611cf5565b9392505050565b600081519050919050565b600081905092915050565b60005b83811015611d61578082015181840152602081019050611d46565b60008484015250505050565b6000611d7882611d2d565b611d828185611d38565b9350611d92818560208601611d43565b80840191505092915050565b6000611daa8284611d6d565b915081905092915050565b600082825260208201905092915050565b7f536f75726365206d75737420626520746865206f7261636c65206f662074686560008201527f2072657175657374000000000000000000000000000000000000000000000000602082015250565b6000611e22602883611db5565b9150611e2d82611dc6565b604082019050919050565b60006020820190508181036000830152611e5181611e15565b9050919050565b7f4e487b7100000000000000000000000000000000000000000000000000000000600052602260045260246000fd5b60006002820490506001821680611e9f57607f821691505b602082108103611eb257611eb1611e58565b5b50919050565b60008190508160005260206000209050919050565b60006020601f8301049050919050565b600082821b905092915050565b600060088302611f1a7fffffffffffffffffffffffffffffffffffffffffffffffffffffffffffffffff82611edd565b611f248683611edd565b95508019841693508086168417925050509392505050565b6000819050919050565b6000611f61611f5c611f5784611ceb565b611f3c565b611ceb565b9050919050565b6000819050919050565b611f7b83611f46565b611f8f611f8782611f68565b848454611eea565b825550505050565b600090565b611fa4611f97565b611faf818484611f72565b505050565b5b81811015611fd357611fc8600082611f9c565b600181019050611fb5565b5050565b601f82111561201857611fe981611eb8565b611ff284611ecd565b81016020851015612001578190505b61201561200d85611ecd565b830182611fb4565b50505b505050565b600082821c905092915050565b600061203b6000198460080261201d565b1980831691505092915050565b6000612054838361202a565b9150826002028217905092915050565b61206d82611d2d565b67ffffffffffffffff811115612086576120856119bb565b5b6120908254611e87565b61209b828285611fd7565b600060209050601f8311600181146120ce57600084156120bc578287015190505b6120c68582612048565b86555061212e565b601f1984166120dc86611eb8565b60005b82811015612104578489015182556001820191506020850194506020810190506120df565b86831015612121578489015161211d601f89168261202a565b8355505b6001600288020188555050505b505050505050565b7f4e487b7100000000000000000000000000000000000000000000000000000000600052601160045260246000fd5b600061217082611ceb565b915061217b83611ceb565b925082820190508082111561219357612192612136565b5b92915050565b60006121a482611ceb565b91506121af83611ceb565b92508282026121bd81611ceb565b915082820484148315176121d4576121d3612136565b5b5092915050565b7f4e487b7100000000000000000000000000000000000000000000000000000000600052603260045260246000fd5b600061221582611ceb565b91506000820361222857612227612136565b5b600182039050919050565b7f537472696e67733a20686578206c656e67746820696e73756666696369656e74600082015250565b6000612269602083611db5565b915061227482612233565b602082019050919050565b600060208201905081810360008301526122988161225c565b9050919050565b60007fffffffff0000000000000000000000000000000000000000000000000000000082169050919050565b6122d48161229f565b82525050565b600081519050919050565b600082825260208201905092915050565b6000612301826122da565b61230b81856122e5565b935061231b818560208601611d43565b612324816119aa565b840191505092915050565b600061010082019050612345600083018b611b61565b612352602083018a611cf5565b61235f6040830189611cc1565b61236c6060830188611b61565b61237960808301876122cb565b61238660a0830186611cf5565b61239360c0830185611cf5565b81810360e08301526123a581846122f6565b90509998505050505050505050565b7f4e487b7100000000000000000000000000000000000000000000000000000000600052601260045260246000fd5b60006123ee82611ceb565b91506123f983611ceb565b925082612409576124086123b4565b5b828206905092915050565b600061241f82611ceb565b915061242a83611ceb565b925082820390508181111561244257612441612136565b5b92915050565b600061246361245e61245984611b2f565b611f3c565b611b2f565b9050919050565b600061247582612448565b9050919050565b60006124878261246a565b9050919050565b60008160601b9050919050565b60006124a68261248e565b9050919050565b60006124b88261249b565b9050919050565b6124d06124cb8261247c565b6124ad565b82525050565b6000819050919050565b6124f16124ec82611ceb565b6124d6565b82525050565b600061250382856124bf565b60148201915061251382846124e0565b6020820191508190509392505050565b60006060820190506125386000830186611b61565b6125456020830185611cf5565b818103604083015261255781846122f6565b9050949350505050565b60008151905061257081611bcd565b92915050565b60006020828403121561258c5761258b611996565b5b600061259a84828501612561565b91505092915050565b7f756e61626c6520746f207472616e73666572416e6443616c6c20746f206f726160008201527f636c650000000000000000000000000000000000000000000000000000000000602082015250565b60006125ff602383611db5565b915061260a826125a3565b604082019050919050565b6000602082019050818103600083015261262e816125f2565b9050919050565b60008160011c9050919050565b6000808291508390505b600185111561268c5780860481111561266857612667612136565b5b60018516156126775780820291505b808102905061268585612635565b945061264c565b94509492505050565b6000826126a55760019050612761565b816126b35760009050612761565b81600181146126c957600281146126d357612702565b6001915050612761565b60ff8411156126e5576126e4612136565b5b8360020a9150848211156126fc576126fb612136565b5b50612761565b5060208310610133831016604e8410600b84101617156127375782820a90508381111561273257612731612136565b5b612761565b6127448484846001612642565b9250905081840481111561275b5761275a612136565b5b81810290505b9392505050565b600061277382611ceb565b915061277e83611ceb565b92506127ab7fffffffffffffffffffffffffffffffffffffffffffffffffffffffffffffffff8484612695565b90509291505056fea2646970667358221220f48561e5f7e3cacf88e7ea9639aa977d1ec4ec3ab51af555a90133fbb85f084c64736f6c63430008110033",
  "devdoc": {
    "details": "The Domain Contract Registry contract is used to register the dapp registry for a domain.",
    "kind": "dev",
    "methods": {
      "fulfill(bytes32,bool)": {
        "details": "Callback function for Chainlink request to register or update the dapp registry.",
        "params": {
          "_requestId": "The request id of the Chainlink request",
          "result": "The result of the Chainlink request"
        }
      },
      "fulfillRecordTransiton(bytes32,bool)": {
        "details": "Callback function for Chainlink request to record the transition.",
        "params": {
          "_requestId": "The request id of the Chainlink request",
          "result": "The result of the Chainlink request"
        }
      },
      "setDappRegistry(string,address)": {
        "details": "Set the dapp registry for a domain.",
        "params": {
          "_dappRegistry": "The address of the dapp registry",
          "_domain": "The domain name"
        },
        "returns": {
          "_0": "requestId The request id of the Chainlink request"
        }
      }
    },
    "title": "Domain Contract Registry",
    "version": 1
  },
  "userdoc": {
    "kind": "user",
    "methods": {
      "fulfill(bytes32,bool)": {
        "notice": "If the response by the chainlink Oracle is true, register or update the dapp registry."
      },
      "fulfillRecordTransiton(bytes32,bool)": {
        "notice": "If the response by the chainlink Oracle is true, record the transition."
      },
      "setDappRegistry(string,address)": {
        "notice": "If a domain is not registered add the dapp Registry.  If a domain is already registered, and admin wants to update the dapp registry,  update the registry.  If a domain is already registered, and new owner wants to update the dapp registry,  record transition."
      }
    },
    "version": 1
  },
  "storageLayout": {
    "storage": [
      {
        "astId": 319,
        "contract": "contracts/DomainContractRegistry.sol:DomainContractRegistry",
        "label": "s_ens",
        "offset": 0,
        "slot": "0",
        "type": "t_contract(ENSInterface)974"
      },
      {
        "astId": 321,
        "contract": "contracts/DomainContractRegistry.sol:DomainContractRegistry",
        "label": "s_ensNode",
        "offset": 0,
        "slot": "1",
        "type": "t_bytes32"
      },
      {
        "astId": 324,
        "contract": "contracts/DomainContractRegistry.sol:DomainContractRegistry",
        "label": "s_link",
        "offset": 0,
        "slot": "2",
        "type": "t_contract(LinkTokenInterface)1069"
      },
      {
        "astId": 327,
        "contract": "contracts/DomainContractRegistry.sol:DomainContractRegistry",
        "label": "s_oracle",
        "offset": 0,
        "slot": "3",
        "type": "t_contract(OperatorInterface)1149"
      },
      {
        "astId": 330,
        "contract": "contracts/DomainContractRegistry.sol:DomainContractRegistry",
        "label": "s_requestCount",
        "offset": 0,
        "slot": "4",
        "type": "t_uint256"
      },
      {
        "astId": 334,
        "contract": "contracts/DomainContractRegistry.sol:DomainContractRegistry",
        "label": "s_pendingRequests",
        "offset": 0,
        "slot": "5",
        "type": "t_mapping(t_bytes32,t_address)"
      },
      {
        "astId": 3247,
        "contract": "contracts/DomainContractRegistry.sol:DomainContractRegistry",
        "label": "jobId",
        "offset": 0,
        "slot": "6",
        "type": "t_bytes32"
      },
      {
        "astId": 3249,
        "contract": "contracts/DomainContractRegistry.sol:DomainContractRegistry",
        "label": "fee",
        "offset": 0,
        "slot": "7",
        "type": "t_uint256"
      },
      {
        "astId": 3254,
        "contract": "contracts/DomainContractRegistry.sol:DomainContractRegistry",
        "label": "requestToDomainMap",
        "offset": 0,
        "slot": "8",
        "type": "t_mapping(t_bytes32,t_struct(Domain)3245_storage)"
      },
      {
        "astId": 3259,
        "contract": "contracts/DomainContractRegistry.sol:DomainContractRegistry",
        "label": "registryMap",
        "offset": 0,
        "slot": "9",
        "type": "t_mapping(t_string_memory_ptr,t_struct(RegistryInfo)3233_storage)"
      },
      {
        "astId": 3264,
        "contract": "contracts/DomainContractRegistry.sol:DomainContractRegistry",
        "label": "recordTransitionMap",
        "offset": 0,
        "slot": "10",
        "type": "t_mapping(t_string_memory_ptr,t_struct(RecordTransition)3238_storage)"
      }
    ],
    "types": {
      "t_address": {
        "encoding": "inplace",
        "label": "address",
        "numberOfBytes": "20"
      },
      "t_bytes32": {
        "encoding": "inplace",
        "label": "bytes32",
        "numberOfBytes": "32"
      },
      "t_contract(ENSInterface)974": {
        "encoding": "inplace",
        "label": "contract ENSInterface",
        "numberOfBytes": "20"
      },
      "t_contract(LinkTokenInterface)1069": {
        "encoding": "inplace",
        "label": "contract LinkTokenInterface",
        "numberOfBytes": "20"
      },
      "t_contract(OperatorInterface)1149": {
        "encoding": "inplace",
        "label": "contract OperatorInterface",
        "numberOfBytes": "20"
      },
      "t_mapping(t_bytes32,t_address)": {
        "encoding": "mapping",
        "key": "t_bytes32",
        "label": "mapping(bytes32 => address)",
        "numberOfBytes": "32",
        "value": "t_address"
      },
      "t_mapping(t_bytes32,t_struct(Domain)3245_storage)": {
        "encoding": "mapping",
        "key": "t_bytes32",
        "label": "mapping(bytes32 => struct DomainContractRegistry.Domain)",
        "numberOfBytes": "32",
        "value": "t_struct(Domain)3245_storage"
      },
      "t_mapping(t_string_memory_ptr,t_struct(RecordTransition)3238_storage)": {
        "encoding": "mapping",
        "key": "t_string_memory_ptr",
        "label": "mapping(string => struct DomainContractRegistry.RecordTransition)",
        "numberOfBytes": "32",
        "value": "t_struct(RecordTransition)3238_storage"
      },
      "t_mapping(t_string_memory_ptr,t_struct(RegistryInfo)3233_storage)": {
        "encoding": "mapping",
        "key": "t_string_memory_ptr",
        "label": "mapping(string => struct DomainContractRegistry.RegistryInfo)",
        "numberOfBytes": "32",
        "value": "t_struct(RegistryInfo)3233_storage"
      },
      "t_string_memory_ptr": {
        "encoding": "bytes",
        "label": "string",
        "numberOfBytes": "32"
      },
      "t_string_storage": {
        "encoding": "bytes",
        "label": "string",
        "numberOfBytes": "32"
      },
      "t_struct(Domain)3245_storage": {
        "encoding": "inplace",
        "label": "struct DomainContractRegistry.Domain",
        "members": [
          {
            "astId": 3240,
            "contract": "contracts/DomainContractRegistry.sol:DomainContractRegistry",
            "label": "domain",
            "offset": 0,
            "slot": "0",
            "type": "t_string_storage"
          },
          {
            "astId": 3242,
            "contract": "contracts/DomainContractRegistry.sol:DomainContractRegistry",
            "label": "dappRegistry",
            "offset": 0,
            "slot": "1",
            "type": "t_address"
          },
          {
            "astId": 3244,
            "contract": "contracts/DomainContractRegistry.sol:DomainContractRegistry",
            "label": "admin",
            "offset": 0,
            "slot": "2",
            "type": "t_address"
          }
        ],
        "numberOfBytes": "96"
      },
      "t_struct(RecordTransition)3238_storage": {
        "encoding": "inplace",
        "label": "struct DomainContractRegistry.RecordTransition",
        "members": [
          {
            "astId": 3235,
            "contract": "contracts/DomainContractRegistry.sol:DomainContractRegistry",
            "label": "dappRegistry",
            "offset": 0,
            "slot": "0",
            "type": "t_address"
          },
          {
            "astId": 3237,
            "contract": "contracts/DomainContractRegistry.sol:DomainContractRegistry",
            "label": "timestamp",
            "offset": 0,
            "slot": "1",
            "type": "t_uint256"
          }
        ],
        "numberOfBytes": "64"
      },
      "t_struct(RegistryInfo)3233_storage": {
        "encoding": "inplace",
        "label": "struct DomainContractRegistry.RegistryInfo",
        "members": [
          {
            "astId": 3230,
            "contract": "contracts/DomainContractRegistry.sol:DomainContractRegistry",
            "label": "dappRegistry",
            "offset": 0,
            "slot": "0",
            "type": "t_address"
          },
          {
            "astId": 3232,
            "contract": "contracts/DomainContractRegistry.sol:DomainContractRegistry",
            "label": "admin",
            "offset": 0,
            "slot": "1",
            "type": "t_address"
          }
        ],
        "numberOfBytes": "64"
      },
      "t_uint256": {
        "encoding": "inplace",
        "label": "uint256",
        "numberOfBytes": "32"
      }
    }
  }
}